{
  "contractName": "AttestationLogic",
  "abi": [
    {
      "constant": true,
      "inputs": [],
      "name": "attestationRepo",
      "outputs": [
        {
          "name": "",
          "type": "address"
        }
      ],
      "payable": false,
      "stateMutability": "view",
      "type": "function"
    },
    {
      "constant": true,
      "inputs": [],
      "name": "signingLogic",
      "outputs": [
        {
          "name": "",
          "type": "address"
        }
      ],
      "payable": false,
      "stateMutability": "view",
      "type": "function"
    },
    {
      "constant": true,
      "inputs": [],
      "name": "tokenEscrowMarketplace",
      "outputs": [
        {
          "name": "",
          "type": "address"
        }
      ],
      "payable": false,
      "stateMutability": "view",
      "type": "function"
    },
    {
      "constant": true,
      "inputs": [
        {
          "name": "",
          "type": "uint256"
        }
      ],
      "name": "permittedTypesList",
      "outputs": [
        {
          "name": "",
          "type": "string"
        }
      ],
      "payable": false,
      "stateMutability": "view",
      "type": "function"
    },
    {
      "constant": false,
      "inputs": [],
      "name": "renounceOwnership",
      "outputs": [],
      "payable": false,
      "stateMutability": "nonpayable",
      "type": "function"
    },
    {
      "constant": true,
      "inputs": [],
      "name": "registry",
      "outputs": [
        {
          "name": "",
          "type": "address"
        }
      ],
      "payable": false,
      "stateMutability": "view",
      "type": "function"
    },
    {
      "constant": true,
      "inputs": [],
      "name": "owner",
      "outputs": [
        {
          "name": "",
          "type": "address"
        }
      ],
      "payable": false,
      "stateMutability": "view",
      "type": "function"
    },
    {
      "constant": false,
      "inputs": [
        {
          "name": "_newOwner",
          "type": "address"
        }
      ],
      "name": "transferOwnership",
      "outputs": [],
      "payable": false,
      "stateMutability": "nonpayable",
      "type": "function"
    },
    {
      "constant": true,
      "inputs": [],
      "name": "admin",
      "outputs": [
        {
          "name": "",
          "type": "address"
        }
      ],
      "payable": false,
      "stateMutability": "view",
      "type": "function"
    },
    {
      "constant": true,
      "inputs": [
        {
          "name": "",
          "type": "bytes32"
        }
      ],
      "name": "usedSignatures",
      "outputs": [
        {
          "name": "",
          "type": "bool"
        }
      ],
      "payable": false,
      "stateMutability": "view",
      "type": "function"
    },
    {
      "inputs": [
        {
          "name": "_registry",
          "type": "address"
        },
        {
          "name": "_attestationRepo",
          "type": "address"
        },
        {
          "name": "_signingLogic",
          "type": "address"
        },
        {
          "name": "_tokenEscrowMarketplace",
          "type": "address"
        }
      ],
      "payable": false,
      "stateMutability": "nonpayable",
      "type": "constructor"
    },
    {
      "anonymous": false,
      "inputs": [
        {
          "indexed": false,
          "name": "attestationId",
          "type": "uint256"
        },
        {
          "indexed": false,
          "name": "subjectId",
          "type": "uint256"
        },
        {
          "indexed": false,
          "name": "attesterId",
          "type": "uint256"
        },
        {
          "indexed": false,
          "name": "requesterId",
          "type": "uint256"
        },
        {
          "indexed": false,
          "name": "dataHash",
          "type": "bytes32"
        },
        {
          "indexed": false,
          "name": "typeIds",
          "type": "uint256[]"
        },
        {
          "indexed": false,
          "name": "stakeValue",
          "type": "uint256"
        },
        {
          "indexed": false,
          "name": "expiresAt",
          "type": "uint256"
        }
      ],
      "name": "TraitAttested",
      "type": "event"
    },
    {
      "anonymous": false,
      "inputs": [
        {
          "indexed": true,
          "name": "attesterId",
          "type": "uint256"
        },
        {
          "indexed": true,
          "name": "requesterId",
          "type": "uint256"
        }
      ],
      "name": "AttestationRejected",
      "type": "event"
    },
    {
      "anonymous": false,
      "inputs": [
        {
          "indexed": true,
          "name": "subjectId",
          "type": "uint256"
        },
        {
          "indexed": false,
          "name": "attestationId",
          "type": "uint256"
        },
        {
          "indexed": true,
          "name": "revokerId",
          "type": "uint256"
        }
      ],
      "name": "AttestationRevoked",
      "type": "event"
    },
    {
      "anonymous": false,
      "inputs": [
        {
          "indexed": false,
          "name": "traitType",
          "type": "string"
        }
      ],
      "name": "TypeCreated",
      "type": "event"
    },
    {
      "anonymous": false,
      "inputs": [
        {
          "indexed": true,
          "name": "subjectId",
          "type": "uint256"
        },
        {
          "indexed": true,
          "name": "stakerId",
          "type": "uint256"
        },
        {
          "indexed": false,
          "name": "attestationId",
          "type": "uint256"
        },
        {
          "indexed": false,
          "name": "expiresAt",
          "type": "uint256"
        }
      ],
      "name": "StakeSubmitted",
      "type": "event"
    },
    {
      "anonymous": false,
      "inputs": [
        {
          "indexed": true,
          "name": "stakerId",
          "type": "uint256"
        },
        {
          "indexed": false,
          "name": "value",
          "type": "uint256"
        }
      ],
      "name": "StakedTokensReclaimed",
      "type": "event"
    },
    {
      "anonymous": false,
      "inputs": [
        {
          "indexed": false,
          "name": "oldRegistry",
          "type": "address"
        },
        {
          "indexed": false,
          "name": "newRegistry",
          "type": "address"
        }
      ],
      "name": "AccountRegistryChanged",
      "type": "event"
    },
    {
      "anonymous": false,
      "inputs": [
        {
          "indexed": false,
          "name": "oldAttestationRepo",
          "type": "address"
        },
        {
          "indexed": false,
          "name": "newAttestationRepo",
          "type": "address"
        }
      ],
      "name": "AttestationRepoChanged",
      "type": "event"
    },
    {
      "anonymous": false,
      "inputs": [
        {
          "indexed": false,
          "name": "oldSigningLogic",
          "type": "address"
        },
        {
          "indexed": false,
          "name": "newSigningLogic",
          "type": "address"
        }
      ],
      "name": "SigningLogicChanged",
      "type": "event"
    },
    {
      "anonymous": false,
      "inputs": [
        {
          "indexed": false,
          "name": "oldTokenEscrowMarketplace",
          "type": "address"
        },
        {
          "indexed": false,
          "name": "newTokenEscrowMarketplace",
          "type": "address"
        }
      ],
      "name": "TokenEscrowMarketplaceChanged",
      "type": "event"
    },
    {
      "anonymous": false,
      "inputs": [
        {
          "indexed": false,
          "name": "oldAdmin",
          "type": "address"
        },
        {
          "indexed": false,
          "name": "newAdmin",
          "type": "address"
        }
      ],
      "name": "AdminChanged",
      "type": "event"
    },
    {
      "anonymous": false,
      "inputs": [
        {
          "indexed": true,
          "name": "previousOwner",
          "type": "address"
        }
      ],
      "name": "OwnershipRenounced",
      "type": "event"
    },
    {
      "anonymous": false,
      "inputs": [
        {
          "indexed": true,
          "name": "previousOwner",
          "type": "address"
        },
        {
          "indexed": true,
          "name": "newOwner",
          "type": "address"
        }
      ],
      "name": "OwnershipTransferred",
      "type": "event"
    },
    {
      "constant": false,
      "inputs": [
        {
          "name": "_subject",
          "type": "address"
        },
        {
          "name": "_requester",
          "type": "address"
        },
        {
          "name": "_reward",
          "type": "uint256"
        },
        {
          "name": "_paymentNonce",
          "type": "bytes32"
        },
        {
          "name": "_requesterSig",
          "type": "bytes"
        },
        {
          "name": "_dataHash",
          "type": "bytes32"
        },
        {
          "name": "_typeIds",
          "type": "uint256[]"
        },
        {
          "name": "_requestNonce",
          "type": "bytes32"
        },
        {
          "name": "_subjectSig",
          "type": "bytes"
        }
      ],
      "name": "attest",
      "outputs": [],
      "payable": false,
      "stateMutability": "nonpayable",
      "type": "function"
    },
    {
      "constant": false,
      "inputs": [
        {
          "name": "_subject",
          "type": "address"
        },
        {
          "name": "_attester",
          "type": "address"
        },
        {
          "name": "_requester",
          "type": "address"
        },
        {
          "name": "_reward",
          "type": "uint256"
        },
        {
          "name": "_paymentNonce",
          "type": "bytes32"
        },
        {
          "name": "_requesterSig",
          "type": "bytes"
        },
        {
          "name": "_dataHash",
          "type": "bytes32"
        },
        {
          "name": "_typeIds",
          "type": "uint256[]"
        },
        {
          "name": "_requestNonce",
          "type": "bytes32"
        },
        {
          "name": "_subjectSig",
          "type": "bytes"
        },
        {
          "name": "_delegationSig",
          "type": "bytes"
        }
      ],
      "name": "attestFor",
      "outputs": [],
      "payable": false,
      "stateMutability": "nonpayable",
      "type": "function"
    },
    {
      "constant": false,
      "inputs": [
        {
          "name": "_requester",
          "type": "address"
        },
        {
          "name": "_reward",
          "type": "uint256"
        },
        {
          "name": "_paymentNonce",
          "type": "bytes32"
        },
        {
          "name": "_requesterSig",
          "type": "bytes"
        }
      ],
      "name": "contest",
      "outputs": [],
      "payable": false,
      "stateMutability": "nonpayable",
      "type": "function"
    },
    {
      "constant": false,
      "inputs": [
        {
          "name": "_attester",
          "type": "address"
        },
        {
          "name": "_requester",
          "type": "address"
        },
        {
          "name": "_reward",
          "type": "uint256"
        },
        {
          "name": "_paymentNonce",
          "type": "bytes32"
        },
        {
          "name": "_requesterSig",
          "type": "bytes"
        },
        {
          "name": "_delegationSig",
          "type": "bytes"
        }
      ],
      "name": "contestFor",
      "outputs": [],
      "payable": false,
      "stateMutability": "nonpayable",
      "type": "function"
    },
    {
      "constant": false,
      "inputs": [
        {
          "name": "_subject",
          "type": "address"
        },
        {
          "name": "_attester",
          "type": "address"
        },
        {
          "name": "_requester",
          "type": "address"
        },
        {
          "name": "_dataHash",
          "type": "bytes32"
        },
        {
          "name": "_typeIds",
          "type": "uint256[]"
        },
        {
          "name": "_requestNonce",
          "type": "bytes32"
        },
        {
          "name": "_subjectSig",
          "type": "bytes"
        }
      ],
      "name": "validateSubjectSig",
      "outputs": [],
      "payable": false,
      "stateMutability": "nonpayable",
      "type": "function"
    },
    {
      "constant": false,
      "inputs": [
        {
          "name": "_traitType",
          "type": "string"
        }
      ],
      "name": "createType",
      "outputs": [],
      "payable": false,
      "stateMutability": "nonpayable",
      "type": "function"
    },
    {
      "constant": true,
      "inputs": [
        {
          "name": "_typeIds",
          "type": "uint256[]"
        }
      ],
      "name": "traitTypesExist",
      "outputs": [
        {
          "name": "",
          "type": "bool"
        }
      ],
      "payable": false,
      "stateMutability": "view",
      "type": "function"
    },
    {
      "constant": false,
      "inputs": [
        {
          "name": "_subjectId",
          "type": "uint256"
        },
        {
          "name": "_attestationId",
          "type": "uint256"
        }
      ],
      "name": "revokeAttestation",
      "outputs": [],
      "payable": false,
      "stateMutability": "nonpayable",
      "type": "function"
    },
    {
      "constant": false,
      "inputs": [
        {
          "name": "_subject",
          "type": "address"
        },
        {
          "name": "_value",
          "type": "uint256"
        },
        {
          "name": "_paymentNonce",
          "type": "bytes32"
        },
        {
          "name": "_paymentSig",
          "type": "bytes"
        },
        {
          "name": "_dataHash",
          "type": "bytes32"
        },
        {
          "name": "_typeIds",
          "type": "uint256[]"
        },
        {
          "name": "_requestNonce",
          "type": "bytes32"
        },
        {
          "name": "_subjectSig",
          "type": "bytes"
        },
        {
          "name": "_stakeDuration",
          "type": "uint256"
        }
      ],
      "name": "stake",
      "outputs": [],
      "payable": false,
      "stateMutability": "nonpayable",
      "type": "function"
    },
    {
      "constant": false,
      "inputs": [
        {
          "name": "_subject",
          "type": "address"
        },
        {
          "name": "_staker",
          "type": "address"
        },
        {
          "name": "_value",
          "type": "uint256"
        },
        {
          "name": "_paymentNonce",
          "type": "bytes32"
        },
        {
          "name": "_paymentSig",
          "type": "bytes"
        },
        {
          "name": "_dataHash",
          "type": "bytes32"
        },
        {
          "name": "_typeIds",
          "type": "uint256[]"
        },
        {
          "name": "_requestNonce",
          "type": "bytes32"
        },
        {
          "name": "_subjectSig",
          "type": "bytes"
        },
        {
          "name": "_stakeDuration",
          "type": "uint256"
        },
        {
          "name": "_delegationSig",
          "type": "bytes"
        }
      ],
      "name": "stakeFor",
      "outputs": [],
      "payable": false,
      "stateMutability": "nonpayable",
      "type": "function"
    },
    {
      "constant": false,
      "inputs": [
        {
          "name": "_attestationId",
          "type": "uint256"
        },
        {
          "name": "_subjectId",
          "type": "uint256"
        }
      ],
      "name": "reclaimStakedTokens",
      "outputs": [],
      "payable": false,
      "stateMutability": "nonpayable",
      "type": "function"
    },
    {
      "constant": false,
      "inputs": [
        {
          "name": "_subjectId",
          "type": "uint256"
        },
        {
          "name": "_staker",
          "type": "address"
        },
        {
          "name": "_attestationId",
          "type": "uint256"
        }
      ],
      "name": "reclaimStakedTokensFor",
      "outputs": [],
      "payable": false,
      "stateMutability": "nonpayable",
      "type": "function"
    },
    {
      "constant": false,
      "inputs": [
        {
          "name": "_subjectId",
          "type": "uint256"
        },
        {
          "name": "_attestationId",
          "type": "uint256"
        }
      ],
      "name": "revokeStake",
      "outputs": [],
      "payable": false,
      "stateMutability": "nonpayable",
      "type": "function"
    },
    {
      "constant": false,
      "inputs": [
        {
          "name": "_subjectId",
          "type": "uint256"
        },
        {
          "name": "_staker",
          "type": "address"
        },
        {
          "name": "_attestationId",
          "type": "uint256"
        },
        {
          "name": "_delegationSig",
          "type": "bytes"
        }
      ],
      "name": "revokeStakeFor",
      "outputs": [],
      "payable": false,
      "stateMutability": "nonpayable",
      "type": "function"
    },
    {
      "constant": false,
      "inputs": [
        {
          "name": "_newAdmin",
          "type": "address"
        }
      ],
      "name": "setAdmin",
      "outputs": [],
      "payable": false,
      "stateMutability": "nonpayable",
      "type": "function"
    },
    {
      "constant": false,
      "inputs": [
        {
          "name": "_newRegistry",
          "type": "address"
        }
      ],
      "name": "setAccountRegistry",
      "outputs": [],
      "payable": false,
      "stateMutability": "nonpayable",
      "type": "function"
    },
    {
      "constant": false,
      "inputs": [
        {
          "name": "_newSigningLogic",
          "type": "address"
        }
      ],
      "name": "setSigningLogic",
      "outputs": [],
      "payable": false,
      "stateMutability": "nonpayable",
      "type": "function"
    },
    {
      "constant": false,
      "inputs": [
        {
          "name": "_newAttestationRepo",
          "type": "address"
        }
      ],
      "name": "setAttestationRepo",
      "outputs": [],
      "payable": false,
      "stateMutability": "nonpayable",
      "type": "function"
    },
    {
      "constant": false,
      "inputs": [
        {
          "name": "_newTokenEscrowMarketplace",
          "type": "address"
        }
      ],
      "name": "setTokenEscrowMarketplace",
      "outputs": [],
      "payable": false,
      "stateMutability": "nonpayable",
      "type": "function"
    }
  ],
  "bytecode": "0x608060405234801561001057600080fd5b50604051608080614ecf83398101806040528101908080519060200190929190805190602001909291908051906020019092919080519060200190929190505050336000806101000a81548173ffffffffffffffffffffffffffffffffffffffff021916908373ffffffffffffffffffffffffffffffffffffffff16021790555082600260006101000a81548173ffffffffffffffffffffffffffffffffffffffff021916908373ffffffffffffffffffffffffffffffffffffffff16021790555083600160006101000a81548173ffffffffffffffffffffffffffffffffffffffff021916908373ffffffffffffffffffffffffffffffffffffffff16021790555081600360006101000a81548173ffffffffffffffffffffffffffffffffffffffff021916908373ffffffffffffffffffffffffffffffffffffffff16021790555080600460006101000a81548173ffffffffffffffffffffffffffffffffffffffff021916908373ffffffffffffffffffffffffffffffffffffffff1602179055506000809054906101000a900473ffffffffffffffffffffffffffffffffffffffff16600560006101000a81548173ffffffffffffffffffffffffffffffffffffffff021916908373ffffffffffffffffffffffffffffffffffffffff16021790555050505050614cc58061020a6000396000f300608060405260043610610175576000357c0100000000000000000000000000000000000000000000000000000000900463ffffffff1680630ca7a56a1461017a57806310099a641461028157806326e49c48146102c45780633a96d16e146104145780633c736778146105e0578063414978311461062357806343da7df31461067a57806344d0afbc146106d15780634ae122bb146107285780634e46f6e3146107c957806365b8a77a146108205780636661a51e146108c6578063704b6c0214610909578063715018a61461094c5780637b103999146109635780638da5cb5b146109ba578063977d035114610a11578063982142ac14610a54578063a145338e14610b7c578063ad3d5d2314610d32578063addd9f5914610dcf578063bd27864e14610e06578063ce8f4ff814610e3d578063d892515114610ebb578063ec00aa3d14611021578063f2fde38b1461108a578063f851a440146110cd578063f9494c0914611124578063f978fd611461115b575b600080fd5b34801561018657600080fd5b5061027f600480360381019080803573ffffffffffffffffffffffffffffffffffffffff169060200190929190803573ffffffffffffffffffffffffffffffffffffffff169060200190929190803590602001909291908035600019169060200190929190803590602001908201803590602001908080601f0160208091040260200160405190810160405280939291908181526020018383808284378201915050505050509192919290803590602001908201803590602001908080601f01602080910402602001604051908101604052809392919081815260200183838082843782019150505050505091929192905050506111a4565b005b34801561028d57600080fd5b506102c2600480360381019080803573ffffffffffffffffffffffffffffffffffffffff1690602001909291905050506114a4565b005b3480156102d057600080fd5b50610412600480360381019080803573ffffffffffffffffffffffffffffffffffffffff169060200190929190803590602001909291908035600019169060200190929190803590602001908201803590602001908080601f01602080910402602001604051908101604052809392919081815260200183838082843782019150505050505091929192908035600019169060200190929190803590602001908201803590602001908080602002602001604051908101604052809392919081815260200183836020028082843782019150505050505091929192908035600019169060200190929190803590602001908201803590602001908080601f01602080910402602001604051908101604052809392919081815260200183838082843782019150505050505091929192908035906020019092919050505061164c565b005b34801561042057600080fd5b506105de600480360381019080803573ffffffffffffffffffffffffffffffffffffffff169060200190929190803573ffffffffffffffffffffffffffffffffffffffff169060200190929190803573ffffffffffffffffffffffffffffffffffffffff169060200190929190803590602001909291908035600019169060200190929190803590602001908201803590602001908080601f01602080910402602001604051908101604052809392919081815260200183838082843782019150505050505091929192908035600019169060200190929190803590602001908201803590602001908080602002602001604051908101604052809392919081815260200183836020028082843782019150505050505091929192908035600019169060200190929190803590602001908201803590602001908080601f0160208091040260200160405190810160405280939291908181526020018383808284378201915050505050509192919290803590602001908201803590602001908080601f0160208091040260200160405190810160405280939291908181526020018383808284378201915050505050509192919290505050611669565b005b3480156105ec57600080fd5b50610621600480360381019080803573ffffffffffffffffffffffffffffffffffffffff169060200190929190505050611a10565b005b34801561062f57600080fd5b50610638611bb8565b604051808273ffffffffffffffffffffffffffffffffffffffff1673ffffffffffffffffffffffffffffffffffffffff16815260200191505060405180910390f35b34801561068657600080fd5b506106cf60048036038101908080359060200190929190803573ffffffffffffffffffffffffffffffffffffffff16906020019092919080359060200190929190505050611bde565b005b3480156106dd57600080fd5b506106e6611c4a565b604051808273ffffffffffffffffffffffffffffffffffffffff1673ffffffffffffffffffffffffffffffffffffffff16815260200191505060405180910390f35b34801561073457600080fd5b506107c7600480360381019080803573ffffffffffffffffffffffffffffffffffffffff169060200190929190803590602001909291908035600019169060200190929190803590602001908201803590602001908080601f0160208091040260200160405190810160405280939291908181526020018383808284378201915050505050509192919290505050611c70565b005b3480156107d557600080fd5b506107de611c83565b604051808273ffffffffffffffffffffffffffffffffffffffff1673ffffffffffffffffffffffffffffffffffffffff16815260200191505060405180910390f35b34801561082c57600080fd5b5061084b60048036038101908080359060200190929190505050611ca9565b6040518080602001828103825283818151815260200191508051906020019080838360005b8381101561088b578082015181840152602081019050610870565b50505050905090810190601f1680156108b85780820380516001836020036101000a031916815260200191505b509250505060405180910390f35b3480156108d257600080fd5b50610907600480360381019080803573ffffffffffffffffffffffffffffffffffffffff169060200190929190505050611d64565b005b34801561091557600080fd5b5061094a600480360381019080803573ffffffffffffffffffffffffffffffffffffffff169060200190929190505050611f0c565b005b34801561095857600080fd5b506109616120b4565b005b34801561096f57600080fd5b506109786121b6565b604051808273ffffffffffffffffffffffffffffffffffffffff1673ffffffffffffffffffffffffffffffffffffffff16815260200191505060405180910390f35b3480156109c657600080fd5b506109cf6121dc565b604051808273ffffffffffffffffffffffffffffffffffffffff1673ffffffffffffffffffffffffffffffffffffffff16815260200191505060405180910390f35b348015610a1d57600080fd5b50610a52600480360381019080803573ffffffffffffffffffffffffffffffffffffffff169060200190929190505050612201565b005b348015610a6057600080fd5b50610b7a600480360381019080803573ffffffffffffffffffffffffffffffffffffffff169060200190929190803573ffffffffffffffffffffffffffffffffffffffff169060200190929190803573ffffffffffffffffffffffffffffffffffffffff1690602001909291908035600019169060200190929190803590602001908201803590602001908080602002602001604051908101604052809392919081815260200183836020028082843782019150505050505091929192908035600019169060200190929190803590602001908201803590602001908080601f01602080910402602001604051908101604052809392919081815260200183838082843782019150505050505091929192905050506123a9565b005b348015610b8857600080fd5b50610d30600480360381019080803573ffffffffffffffffffffffffffffffffffffffff169060200190929190803573ffffffffffffffffffffffffffffffffffffffff169060200190929190803590602001909291908035600019169060200190929190803590602001908201803590602001908080601f01602080910402602001604051908101604052809392919081815260200183838082843782019150505050505091929192908035600019169060200190929190803590602001908201803590602001908080602002602001604051908101604052809392919081815260200183836020028082843782019150505050505091929192908035600019169060200190929190803590602001908201803590602001908080601f016020809104026020016040519081016040528093929190818152602001838380828437820191505050505050919291929080359060200190929190803590602001908201803590602001908080601f0160208091040260200160405190810160405280939291908181526020018383808284378201915050505050509192919290505050612962565b005b348015610d3e57600080fd5b50610dcd60048036038101908080359060200190929190803573ffffffffffffffffffffffffffffffffffffffff16906020019092919080359060200190929190803590602001908201803590602001908080601f0160208091040260200160405190810160405280939291908181526020018383808284378201915050505050509192919290505050612cdd565b005b348015610ddb57600080fd5b50610e046004803603810190808035906020019092919080359060200190929190505050612f9d565b005b348015610e1257600080fd5b50610e3b6004803603810190808035906020019092919080359060200190929190505050612fac565b005b348015610e4957600080fd5b50610ea160048036038101908080359060200190820180359060200190808060200260200160405190810160405280939291908181526020018383602002808284378201915050505050509192919290505050612fbb565b604051808215151515815260200191505060405180910390f35b348015610ec757600080fd5b5061101f600480360381019080803573ffffffffffffffffffffffffffffffffffffffff169060200190929190803573ffffffffffffffffffffffffffffffffffffffff169060200190929190803590602001909291908035600019169060200190929190803590602001908201803590602001908080601f01602080910402602001604051908101604052809392919081815260200183838082843782019150505050505091929192908035600019169060200190929190803590602001908201803590602001908080602002602001604051908101604052809392919081815260200183836020028082843782019150505050505091929192908035600019169060200190929190803590602001908201803590602001908080601f0160208091040260200160405190810160405280939291908181526020018383808284378201915050505050509192919290505050613012565b005b34801561102d57600080fd5b50611088600480360381019080803590602001908201803590602001908080601f016020809104026020016040519081016040528093929190818152602001838380828437820191505050505050919291929050505061302f565b005b34801561109657600080fd5b506110cb600480360381019080803573ffffffffffffffffffffffffffffffffffffffff169060200190929190505050613272565b005b3480156110d957600080fd5b506110e26132d9565b604051808273ffffffffffffffffffffffffffffffffffffffff1673ffffffffffffffffffffffffffffffffffffffff16815260200191505060405180910390f35b34801561113057600080fd5b5061115960048036038101908080359060200190929190803590602001909291905050506132ff565b005b34801561116757600080fd5b5061118a6004803603810190808035600019169060200190929190505050613684565b604051808215151515815260200191505060405180910390f35b6000600560009054906101000a900473ffffffffffffffffffffffffffffffffffffffff1673ffffffffffffffffffffffffffffffffffffffff163373ffffffffffffffffffffffffffffffffffffffff1614151561120257600080fd5b600360009054906101000a900473ffffffffffffffffffffffffffffffffffffffff1673ffffffffffffffffffffffffffffffffffffffff1663cea81ab18787876040518463ffffffff167c0100000000000000000000000000000000000000000000000000000000028152600401808473ffffffffffffffffffffffffffffffffffffffff1673ffffffffffffffffffffffffffffffffffffffff16815260200183815260200182600019166000191681526020019350505050602060405180830381600087803b1580156112d757600080fd5b505af11580156112eb573d6000803e3d6000fd5b505050506040513d602081101561130157600080fd5b81019080805190602001909291905050509050600360009054906101000a900473ffffffffffffffffffffffffffffffffffffffff1673ffffffffffffffffffffffffffffffffffffffff166397aba7f982846040518363ffffffff167c010000000000000000000000000000000000000000000000000000000002815260040180836000191660001916815260200180602001828103825283818151815260200191508051906020019080838360005b838110156113cd5780820151818401526020810190506113b2565b50505050905090810190601f1680156113fa5780820380516001836020036101000a031916815260200191505b509350505050602060405180830381600087803b15801561141a57600080fd5b505af115801561142e573d6000803e3d6000fd5b505050506040513d602081101561144457600080fd5b810190808051906020019092919050505073ffffffffffffffffffffffffffffffffffffffff168773ffffffffffffffffffffffffffffffffffffffff1614151561148e57600080fd5b61149b87878787876136a4565b50505050505050565b60008160008173ffffffffffffffffffffffffffffffffffffffff16141515156114cd57600080fd5b6000809054906101000a900473ffffffffffffffffffffffffffffffffffffffff1673ffffffffffffffffffffffffffffffffffffffff163373ffffffffffffffffffffffffffffffffffffffff1614151561152857600080fd5b600260009054906101000a900473ffffffffffffffffffffffffffffffffffffffff16915082600260006101000a81548173ffffffffffffffffffffffffffffffffffffffff021916908373ffffffffffffffffffffffffffffffffffffffff1602179055507f56c8f89538151742260bf253995250197052dfff3cd1ed882e5b1fad77574aac82600260009054906101000a900473ffffffffffffffffffffffffffffffffffffffff16604051808373ffffffffffffffffffffffffffffffffffffffff1673ffffffffffffffffffffffffffffffffffffffff1681526020018273ffffffffffffffffffffffffffffffffffffffff1673ffffffffffffffffffffffffffffffffffffffff1681526020019250505060405180910390a1505050565b61165e89338a8a8a8a8a8a8a8a613a6a565b505050505050505050565b6000600560009054906101000a900473ffffffffffffffffffffffffffffffffffffffff1673ffffffffffffffffffffffffffffffffffffffff163373ffffffffffffffffffffffffffffffffffffffff161415156116c757600080fd5b600360009054906101000a900473ffffffffffffffffffffffffffffffffffffffff1673ffffffffffffffffffffffffffffffffffffffff16639662355e8d8c8c8c8b8b8b6040518863ffffffff167c0100000000000000000000000000000000000000000000000000000000028152600401808873ffffffffffffffffffffffffffffffffffffffff1673ffffffffffffffffffffffffffffffffffffffff1681526020018773ffffffffffffffffffffffffffffffffffffffff1673ffffffffffffffffffffffffffffffffffffffff16815260200186815260200185600019166000191681526020018460001916600019168152602001806020018360001916600019168152602001828103825284818151815260200191508051906020019060200280838360005b8381101561180e5780820151818401526020810190506117f3565b5050505090500198505050505050505050602060405180830381600087803b15801561183957600080fd5b505af115801561184d573d6000803e3d6000fd5b505050506040513d602081101561186357600080fd5b81019080805190602001909291905050509050600360009054906101000a900473ffffffffffffffffffffffffffffffffffffffff1673ffffffffffffffffffffffffffffffffffffffff166397aba7f982846040518363ffffffff167c010000000000000000000000000000000000000000000000000000000002815260040180836000191660001916815260200180602001828103825283818151815260200191508051906020019080838360005b8381101561192f578082015181840152602081019050611914565b50505050905090810190601f16801561195c5780820380516001836020036101000a031916815260200191505b509350505050602060405180830381600087803b15801561197c57600080fd5b505af1158015611990573d6000803e3d6000fd5b505050506040513d60208110156119a657600080fd5b810190808051906020019092919050505073ffffffffffffffffffffffffffffffffffffffff168b73ffffffffffffffffffffffffffffffffffffffff161415156119f057600080fd5b611a028c8c8c8c8c8c8c8c8c8c613c6a565b505050505050505050505050565b60008160008173ffffffffffffffffffffffffffffffffffffffff1614151515611a3957600080fd5b6000809054906101000a900473ffffffffffffffffffffffffffffffffffffffff1673ffffffffffffffffffffffffffffffffffffffff163373ffffffffffffffffffffffffffffffffffffffff16141515611a9457600080fd5b600460009054906101000a900473ffffffffffffffffffffffffffffffffffffffff16915082600460006101000a81548173ffffffffffffffffffffffffffffffffffffffff021916908373ffffffffffffffffffffffffffffffffffffffff1602179055507fff80ee77c85d9a66d44e11d38886b3f07748e818eaeb0660b75706962d0f56d582600460009054906101000a900473ffffffffffffffffffffffffffffffffffffffff16604051808373ffffffffffffffffffffffffffffffffffffffff1673ffffffffffffffffffffffffffffffffffffffff1681526020018273ffffffffffffffffffffffffffffffffffffffff1673ffffffffffffffffffffffffffffffffffffffff1681526020019250505060405180910390a1505050565b600260009054906101000a900473ffffffffffffffffffffffffffffffffffffffff1681565b600560009054906101000a900473ffffffffffffffffffffffffffffffffffffffff1673ffffffffffffffffffffffffffffffffffffffff163373ffffffffffffffffffffffffffffffffffffffff16141515611c3a57600080fd5b611c45838383613e2d565b505050565b600360009054906101000a900473ffffffffffffffffffffffffffffffffffffffff1681565b611c7d33858585856136a4565b50505050565b600460009054906101000a900473ffffffffffffffffffffffffffffffffffffffff1681565b600781815481101515611cb857fe5b906000526020600020016000915090508054600181600116156101000203166002900480601f016020809104026020016040519081016040528092919081815260200182805460018160011615610100020316600290048015611d5c5780601f10611d3157610100808354040283529160200191611d5c565b820191906000526020600020905b815481529060010190602001808311611d3f57829003601f168201915b505050505081565b60008160008173ffffffffffffffffffffffffffffffffffffffff1614151515611d8d57600080fd5b6000809054906101000a900473ffffffffffffffffffffffffffffffffffffffff1673ffffffffffffffffffffffffffffffffffffffff163373ffffffffffffffffffffffffffffffffffffffff16141515611de857600080fd5b600160009054906101000a900473ffffffffffffffffffffffffffffffffffffffff16915082600160006101000a81548173ffffffffffffffffffffffffffffffffffffffff021916908373ffffffffffffffffffffffffffffffffffffffff1602179055507f68913200cecf41727f9b83c3ef808abc9b8a07e16a8ccb2fbb9fd9bcc7183f8282600160009054906101000a900473ffffffffffffffffffffffffffffffffffffffff16604051808373ffffffffffffffffffffffffffffffffffffffff1673ffffffffffffffffffffffffffffffffffffffff1681526020018273ffffffffffffffffffffffffffffffffffffffff1673ffffffffffffffffffffffffffffffffffffffff1681526020019250505060405180910390a1505050565b60008060009054906101000a900473ffffffffffffffffffffffffffffffffffffffff1673ffffffffffffffffffffffffffffffffffffffff163373ffffffffffffffffffffffffffffffffffffffff16141515611f6957600080fd5b8160008173ffffffffffffffffffffffffffffffffffffffff1614151515611f9057600080fd5b600560009054906101000a900473ffffffffffffffffffffffffffffffffffffffff16915082600560006101000a81548173ffffffffffffffffffffffffffffffffffffffff021916908373ffffffffffffffffffffffffffffffffffffffff1602179055507f7e644d79422f17c01e4894b5f4f588d331ebfa28653d42ae832dc59e38c9798f82600560009054906101000a900473ffffffffffffffffffffffffffffffffffffffff16604051808373ffffffffffffffffffffffffffffffffffffffff1673ffffffffffffffffffffffffffffffffffffffff1681526020018273ffffffffffffffffffffffffffffffffffffffff1673ffffffffffffffffffffffffffffffffffffffff1681526020019250505060405180910390a1505050565b6000809054906101000a900473ffffffffffffffffffffffffffffffffffffffff1673ffffffffffffffffffffffffffffffffffffffff163373ffffffffffffffffffffffffffffffffffffffff1614151561210f57600080fd5b6000809054906101000a900473ffffffffffffffffffffffffffffffffffffffff1673ffffffffffffffffffffffffffffffffffffffff167ff8df31144d9c2f0f6b59d69b8b98abd5459d07f2742c4df920b25aae33c6482060405160405180910390a260008060006101000a81548173ffffffffffffffffffffffffffffffffffffffff021916908373ffffffffffffffffffffffffffffffffffffffff160217905550565b600160009054906101000a900473ffffffffffffffffffffffffffffffffffffffff1681565b6000809054906101000a900473ffffffffffffffffffffffffffffffffffffffff1681565b60008160008173ffffffffffffffffffffffffffffffffffffffff161415151561222a57600080fd5b6000809054906101000a900473ffffffffffffffffffffffffffffffffffffffff1673ffffffffffffffffffffffffffffffffffffffff163373ffffffffffffffffffffffffffffffffffffffff1614151561228557600080fd5b600360009054906101000a900473ffffffffffffffffffffffffffffffffffffffff16915082600360006101000a81548173ffffffffffffffffffffffffffffffffffffffff021916908373ffffffffffffffffffffffffffffffffffffffff1602179055507f9065f3654b16a9bdc012d8a568f9f881cbfc95ccce9c9ee0f648481bdca4f70582600360009054906101000a900473ffffffffffffffffffffffffffffffffffffffff16604051808373ffffffffffffffffffffffffffffffffffffffff1673ffffffffffffffffffffffffffffffffffffffff1681526020018273ffffffffffffffffffffffffffffffffffffffff1673ffffffffffffffffffffffffffffffffffffffff1681526020019250505060405180910390a1505050565b60066000826040516020018082805190602001908083835b6020831015156123e657805182526020820191506020810190506020830392506123c1565b6001836020036101000a0380198251168184511680821785525050505050509050019150506040516020818303038152906040526040518082805190602001908083835b60208310151561244f578051825260208201915060208101905060208303925061242a565b6001836020036101000a03801982511681845116808217855250505050505090500191505060405180910390206000191660001916815260200190815260200160002060009054906101000a900460ff16151515612515576040517f08c379a00000000000000000000000000000000000000000000000000000000081526004018080602001828103825260148152602001807f5369676e6174757265206e6f7420756e6971756500000000000000000000000081525060200191505060405180910390fd5b600160066000836040516020018082805190602001908083835b602083101515612554578051825260208201915060208101905060208303925061252f565b6001836020036101000a0380198251168184511680821785525050505050509050019150506040516020818303038152906040526040518082805190602001908083835b6020831015156125bd5780518252602082019150602081019050602083039250612598565b6001836020036101000a03801982511681845116808217855250505050505090500191505060405180910390206000191660001916815260200190815260200160002060006101000a81548160ff021916908315150217905550600360009054906101000a900473ffffffffffffffffffffffffffffffffffffffff1673ffffffffffffffffffffffffffffffffffffffff166397aba7f9600360009054906101000a900473ffffffffffffffffffffffffffffffffffffffff1673ffffffffffffffffffffffffffffffffffffffff1663520bbba38a8a8a8a8a8a6040518763ffffffff167c0100000000000000000000000000000000000000000000000000000000028152600401808773ffffffffffffffffffffffffffffffffffffffff1673ffffffffffffffffffffffffffffffffffffffff1681526020018673ffffffffffffffffffffffffffffffffffffffff1673ffffffffffffffffffffffffffffffffffffffff1681526020018573ffffffffffffffffffffffffffffffffffffffff1673ffffffffffffffffffffffffffffffffffffffff1681526020018460001916600019168152602001806020018360001916600019168152602001828103825284818151815260200191508051906020019060200280838360005b838110156127b957808201518184015260208101905061279e565b50505050905001975050505050505050602060405180830381600087803b1580156127e357600080fd5b505af11580156127f7573d6000803e3d6000fd5b505050506040513d602081101561280d57600080fd5b8101908080519060200190929190505050836040518363ffffffff167c010000000000000000000000000000000000000000000000000000000002815260040180836000191660001916815260200180602001828103825283818151815260200191508051906020019080838360005b8381101561289857808201518184015260208101905061287d565b50505050905090810190601f1680156128c55780820380516001836020036101000a031916815260200191505b509350505050602060405180830381600087803b1580156128e557600080fd5b505af11580156128f9573d6000803e3d6000fd5b505050506040513d602081101561290f57600080fd5b810190808051906020019092919050505073ffffffffffffffffffffffffffffffffffffffff168773ffffffffffffffffffffffffffffffffffffffff1614151561295957600080fd5b50505050505050565b6000600560009054906101000a900473ffffffffffffffffffffffffffffffffffffffff1673ffffffffffffffffffffffffffffffffffffffff163373ffffffffffffffffffffffffffffffffffffffff161415156129c057600080fd5b600360009054906101000a900473ffffffffffffffffffffffffffffffffffffffff1673ffffffffffffffffffffffffffffffffffffffff166358469cd18d8c8c8b8b8b8a6040518863ffffffff167c0100000000000000000000000000000000000000000000000000000000028152600401808873ffffffffffffffffffffffffffffffffffffffff1673ffffffffffffffffffffffffffffffffffffffff16815260200187815260200186600019166000191681526020018560001916600019168152602001806020018460001916600019168152602001838152602001828103825285818151815260200191508051906020019060200280838360005b83811015612adb578082015181840152602081019050612ac0565b5050505090500198505050505050505050602060405180830381600087803b158015612b0657600080fd5b505af1158015612b1a573d6000803e3d6000fd5b505050506040513d6020811015612b3057600080fd5b81019080805190602001909291905050509050600360009054906101000a900473ffffffffffffffffffffffffffffffffffffffff1673ffffffffffffffffffffffffffffffffffffffff166397aba7f982846040518363ffffffff167c010000000000000000000000000000000000000000000000000000000002815260040180836000191660001916815260200180602001828103825283818151815260200191508051906020019080838360005b83811015612bfc578082015181840152602081019050612be1565b50505050905090810190601f168015612c295780820380516001836020036101000a031916815260200191505b509350505050602060405180830381600087803b158015612c4957600080fd5b505af1158015612c5d573d6000803e3d6000fd5b505050506040513d6020811015612c7357600080fd5b810190808051906020019092919050505073ffffffffffffffffffffffffffffffffffffffff168b73ffffffffffffffffffffffffffffffffffffffff16141515612cbd57600080fd5b612ccf8c8c8c8c8c8c8c8c8c8c613a6a565b505050505050505050505050565b6000600560009054906101000a900473ffffffffffffffffffffffffffffffffffffffff1673ffffffffffffffffffffffffffffffffffffffff163373ffffffffffffffffffffffffffffffffffffffff16141515612d3b57600080fd5b600360009054906101000a900473ffffffffffffffffffffffffffffffffffffffff1673ffffffffffffffffffffffffffffffffffffffff1663bab6f9bf86856040518363ffffffff167c01000000000000000000000000000000000000000000000000000000000281526004018083815260200182815260200192505050602060405180830381600087803b158015612dd457600080fd5b505af1158015612de8573d6000803e3d6000fd5b505050506040513d6020811015612dfe57600080fd5b81019080805190602001909291905050509050600360009054906101000a900473ffffffffffffffffffffffffffffffffffffffff1673ffffffffffffffffffffffffffffffffffffffff166397aba7f982846040518363ffffffff167c010000000000000000000000000000000000000000000000000000000002815260040180836000191660001916815260200180602001828103825283818151815260200191508051906020019080838360005b83811015612eca578082015181840152602081019050612eaf565b50505050905090810190601f168015612ef75780820380516001836020036101000a031916815260200191505b509350505050602060405180830381600087803b158015612f1757600080fd5b505af1158015612f2b573d6000803e3d6000fd5b505050506040513d6020811015612f4157600080fd5b810190808051906020019092919050505073ffffffffffffffffffffffffffffffffffffffff168473ffffffffffffffffffffffffffffffffffffffff16141515612f8b57600080fd5b612f9685858561423e565b5050505050565b612fa882338361423e565b5050565b612fb7813384613e2d565b5050565b600080600090505b8251811015613007576007805490508382815181101515612fe057fe5b90602001906020020151101515612ffa576000915061300c565b8080600101915050612fc3565b600191505b50919050565b61302489338a8a8a8a8a8a8a8a613c6a565b505050505050505050565b600560009054906101000a900473ffffffffffffffffffffffffffffffffffffffff1673ffffffffffffffffffffffffffffffffffffffff163373ffffffffffffffffffffffffffffffffffffffff1614151561308b57600080fd5b6008816040518082805190602001908083835b6020831015156130c3578051825260208201915060208101905060208303925061309e565b6001836020036101000a038019825116818451168082178552505050505050905001915050908152602001604051809103902060009054906101000a900460ff1615151561311057600080fd5b60016008826040518082805190602001908083835b60208310151561314a5780518252602082019150602081019050602083039250613125565b6001836020036101000a038019825116818451168082178552505050505050905001915050908152602001604051809103902060006101000a81548160ff02191690831515021790555060078190806001815401808255809150509060018203906000526020600020016000909192909190915090805190602001906131d1929190614bf4565b50507f3e0f56f9cca602c13d9c986c085306643ffce32e1d4b55e68f542e9794ba17b4816040518080602001828103825283818151815260200191508051906020019080838360005b8381101561323557808201518184015260208101905061321a565b50505050905090810190601f1680156132625780820380516001836020036101000a031916815260200191505b509250505060405180910390a150565b6000809054906101000a900473ffffffffffffffffffffffffffffffffffffffff1673ffffffffffffffffffffffffffffffffffffffff163373ffffffffffffffffffffffffffffffffffffffff161415156132cd57600080fd5b6132d68161463f565b50565b600560009054906101000a900473ffffffffffffffffffffffffffffffffffffffff1681565b6000806000806000600160009054906101000a900473ffffffffffffffffffffffffffffffffffffffff1673ffffffffffffffffffffffffffffffffffffffff16631a5b70ad336040518263ffffffff167c0100000000000000000000000000000000000000000000000000000000028152600401808273ffffffffffffffffffffffffffffffffffffffff1673ffffffffffffffffffffffffffffffffffffffff168152602001915050602060405180830381600087803b1580156133c457600080fd5b505af11580156133d8573d6000803e3d6000fd5b505050506040513d60208110156133ee57600080fd5b81019080805190602001909291905050509450600260009054906101000a900473ffffffffffffffffffffffffffffffffffffffff1673ffffffffffffffffffffffffffffffffffffffff16635e44183288886040518363ffffffff167c01000000000000000000000000000000000000000000000000000000000281526004018083815260200182815260200192505050608060405180830381600087803b15801561349a57600080fd5b505af11580156134ae573d6000803e3d6000fd5b505050506040513d60808110156134c457600080fd5b8101908080519060200190929190805190602001909291908051906020019092919080519060200190929190505050809450819550829650839750505050508685148061351057508385145b806135685750600560009054906101000a900473ffffffffffffffffffffffffffffffffffffffff1673ffffffffffffffffffffffffffffffffffffffff163373ffffffffffffffffffffffffffffffffffffffff16145b151561357357600080fd5b60008311151561358257600080fd5b60008214151561359157600080fd5b600260009054906101000a900473ffffffffffffffffffffffffffffffffffffffff1673ffffffffffffffffffffffffffffffffffffffff1663f9494c0988886040518363ffffffff167c01000000000000000000000000000000000000000000000000000000000281526004018083815260200182815260200192505050600060405180830381600087803b15801561362a57600080fd5b505af115801561363e573d6000803e3d6000fd5b5050505084877f7cabddf999ed380d53b84d7ce88026082d771071f8ae1e8bf56d6f8f9beb3a47886040518082815260200191505060405180910390a350505050505050565b60066020528060005260406000206000915054906101000a900460ff1681565b600080600160009054906101000a900473ffffffffffffffffffffffffffffffffffffffff1673ffffffffffffffffffffffffffffffffffffffff16631a5b70ad876040518263ffffffff167c0100000000000000000000000000000000000000000000000000000000028152600401808273ffffffffffffffffffffffffffffffffffffffff1673ffffffffffffffffffffffffffffffffffffffff168152602001915050602060405180830381600087803b15801561376457600080fd5b505af1158015613778573d6000803e3d6000fd5b505050506040513d602081101561378e57600080fd5b81019080805190602001909291905050509150600160009054906101000a900473ffffffffffffffffffffffffffffffffffffffff1673ffffffffffffffffffffffffffffffffffffffff16631a5b70ad886040518263ffffffff167c0100000000000000000000000000000000000000000000000000000000028152600401808273ffffffffffffffffffffffffffffffffffffffff1673ffffffffffffffffffffffffffffffffffffffff168152602001915050602060405180830381600087803b15801561385e57600080fd5b505af1158015613872573d6000803e3d6000fd5b505050506040513d602081101561388857600080fd5b810190808051906020019092919050505090506000851115613a3357600460009054906101000a900473ffffffffffffffffffffffffffffffffffffffff1673ffffffffffffffffffffffffffffffffffffffff16635ed5eb5087898888886040518663ffffffff167c0100000000000000000000000000000000000000000000000000000000028152600401808673ffffffffffffffffffffffffffffffffffffffff1673ffffffffffffffffffffffffffffffffffffffff1681526020018573ffffffffffffffffffffffffffffffffffffffff1673ffffffffffffffffffffffffffffffffffffffff168152602001848152602001836000191660001916815260200180602001828103825283818151815260200191508051906020019080838360005b838110156139ca5780820151818401526020810190506139af565b50505050905090810190601f1680156139f75780820380516001836020036101000a031916815260200191505b509650505050505050600060405180830381600087803b158015613a1a57600080fd5b505af1158015613a2e573d6000803e3d6000fd5b505050505b81817f987171b9f28f4352700732e4f4852e1c9d4a69bbd255db4ed7f7f58f6da7497260405160405180910390a350505050505050565b6000613a7b8b8b8d898989896123a9565b81420190506301e28500420181101515613a9457600080fd5b613aa38b8b8d89898e87614739565b6000891115613c5d57600460009054906101000a900473ffffffffffffffffffffffffffffffffffffffff1673ffffffffffffffffffffffffffffffffffffffff16635ed5eb508b600260009054906101000a900473ffffffffffffffffffffffffffffffffffffffff168c8c8c6040518663ffffffff167c0100000000000000000000000000000000000000000000000000000000028152600401808673ffffffffffffffffffffffffffffffffffffffff1673ffffffffffffffffffffffffffffffffffffffff1681526020018573ffffffffffffffffffffffffffffffffffffffff1673ffffffffffffffffffffffffffffffffffffffff168152602001848152602001836000191660001916815260200180602001828103825283818151815260200191508051906020019080838360005b83811015613bf4578082015181840152602081019050613bd9565b50505050905090810190601f168015613c215780820380516001836020036101000a031916815260200191505b509650505050505050600060405180830381600087803b158015613c4457600080fd5b505af1158015613c58573d6000803e3d6000fd5b505050505b5050505050505050505050565b613c798a8a8a878787876123a9565b613c898a8a8a8787600080614739565b6000871115613e2157600460009054906101000a900473ffffffffffffffffffffffffffffffffffffffff1673ffffffffffffffffffffffffffffffffffffffff16635ed5eb50898b8a8a8a6040518663ffffffff167c0100000000000000000000000000000000000000000000000000000000028152600401808673ffffffffffffffffffffffffffffffffffffffff1673ffffffffffffffffffffffffffffffffffffffff1681526020018573ffffffffffffffffffffffffffffffffffffffff1673ffffffffffffffffffffffffffffffffffffffff168152602001848152602001836000191660001916815260200180602001828103825283818151815260200191508051906020019080838360005b83811015613db8578082015181840152602081019050613d9d565b50505050905090810190601f168015613de55780820380516001836020036101000a031916815260200191505b509650505050505050600060405180830381600087803b158015613e0857600080fd5b505af1158015613e1c573d6000803e3d6000fd5b505050505b50505050505050505050565b6000806000806000600160009054906101000a900473ffffffffffffffffffffffffffffffffffffffff1673ffffffffffffffffffffffffffffffffffffffff16631a5b70ad886040518263ffffffff167c0100000000000000000000000000000000000000000000000000000000028152600401808273ffffffffffffffffffffffffffffffffffffffff1673ffffffffffffffffffffffffffffffffffffffff168152602001915050602060405180830381600087803b158015613ef257600080fd5b505af1158015613f06573d6000803e3d6000fd5b505050506040513d6020811015613f1c57600080fd5b81019080805190602001909291905050509450600260009054906101000a900473ffffffffffffffffffffffffffffffffffffffff1673ffffffffffffffffffffffffffffffffffffffff16635e44183289886040518363ffffffff167c01000000000000000000000000000000000000000000000000000000000281526004018083815260200182815260200192505050608060405180830381600087803b158015613fc857600080fd5b505af1158015613fdc573d6000803e3d6000fd5b505050506040513d6080811015613ff257600080fd5b810190808051906020019092919080519060200190929190805190602001909291908051906020019092919050505080945081955082965083975050505050838514151561403f57600080fd5b80421015151561404e57600080fd5b60008211151561405d57600080fd5b600260009054906101000a900473ffffffffffffffffffffffffffffffffffffffff1673ffffffffffffffffffffffffffffffffffffffff16635349421489886000856040518563ffffffff167c010000000000000000000000000000000000000000000000000000000002815260040180858152602001848152602001838152602001828152602001945050505050600060405180830381600087803b15801561410757600080fd5b505af115801561411b573d6000803e3d6000fd5b50505050600260009054906101000a900473ffffffffffffffffffffffffffffffffffffffff1673ffffffffffffffffffffffffffffffffffffffff166316bedd8588846040518363ffffffff167c0100000000000000000000000000000000000000000000000000000000028152600401808373ffffffffffffffffffffffffffffffffffffffff1673ffffffffffffffffffffffffffffffffffffffff16815260200182815260200192505050600060405180830381600087803b1580156141e457600080fd5b505af11580156141f8573d6000803e3d6000fd5b50505050847f37ceee5667d256ea5900738d5d800167d0ee53430641b7b20a59cd731adf156b836040518082815260200191505060405180910390a25050505050505050565b6000806000806000600160009054906101000a900473ffffffffffffffffffffffffffffffffffffffff1673ffffffffffffffffffffffffffffffffffffffff16631a5b70ad886040518263ffffffff167c0100000000000000000000000000000000000000000000000000000000028152600401808273ffffffffffffffffffffffffffffffffffffffff1673ffffffffffffffffffffffffffffffffffffffff168152602001915050602060405180830381600087803b15801561430357600080fd5b505af1158015614317573d6000803e3d6000fd5b505050506040513d602081101561432d57600080fd5b81019080805190602001909291905050509450600260009054906101000a900473ffffffffffffffffffffffffffffffffffffffff1673ffffffffffffffffffffffffffffffffffffffff16635e44183289886040518363ffffffff167c01000000000000000000000000000000000000000000000000000000000281526004018083815260200182815260200192505050608060405180830381600087803b1580156143d957600080fd5b505af11580156143ed573d6000803e3d6000fd5b505050506040513d608081101561440357600080fd5b810190808051906020019092919080519060200190929190805190602001909291908051906020019092919050505080945081955082965083975050505050838514151561445057600080fd5b428111151561445e57600080fd5b600260009054906101000a900473ffffffffffffffffffffffffffffffffffffffff1673ffffffffffffffffffffffffffffffffffffffff16635349421489886000426040518563ffffffff167c010000000000000000000000000000000000000000000000000000000002815260040180858152602001848152602001838152602001828152602001945050505050600060405180830381600087803b15801561450857600080fd5b505af115801561451c573d6000803e3d6000fd5b50505050600260009054906101000a900473ffffffffffffffffffffffffffffffffffffffff1673ffffffffffffffffffffffffffffffffffffffff166316bedd8588846040518363ffffffff167c0100000000000000000000000000000000000000000000000000000000028152600401808373ffffffffffffffffffffffffffffffffffffffff1673ffffffffffffffffffffffffffffffffffffffff16815260200182815260200192505050600060405180830381600087803b1580156145e557600080fd5b505af11580156145f9573d6000803e3d6000fd5b50505050847f37ceee5667d256ea5900738d5d800167d0ee53430641b7b20a59cd731adf156b836040518082815260200191505060405180910390a25050505050505050565b600073ffffffffffffffffffffffffffffffffffffffff168173ffffffffffffffffffffffffffffffffffffffff161415151561467b57600080fd5b8073ffffffffffffffffffffffffffffffffffffffff166000809054906101000a900473ffffffffffffffffffffffffffffffffffffffff1673ffffffffffffffffffffffffffffffffffffffff167f8be0079c531659141344cd1fd0a4f28419497f9722a3daafe3b4186f6b6457e060405160405180910390a3806000806101000a81548173ffffffffffffffffffffffffffffffffffffffff021916908373ffffffffffffffffffffffffffffffffffffffff16021790555050565b600080600080600160009054906101000a900473ffffffffffffffffffffffffffffffffffffffff1673ffffffffffffffffffffffffffffffffffffffff16631a5b70ad8a6040518263ffffffff167c0100000000000000000000000000000000000000000000000000000000028152600401808273ffffffffffffffffffffffffffffffffffffffff1673ffffffffffffffffffffffffffffffffffffffff168152602001915050602060405180830381600087803b1580156147fc57600080fd5b505af1158015614810573d6000803e3d6000fd5b505050506040513d602081101561482657600080fd5b81019080805190602001909291905050509350600160009054906101000a900473ffffffffffffffffffffffffffffffffffffffff1673ffffffffffffffffffffffffffffffffffffffff16631a5b70ad8b6040518263ffffffff167c0100000000000000000000000000000000000000000000000000000000028152600401808273ffffffffffffffffffffffffffffffffffffffff1673ffffffffffffffffffffffffffffffffffffffff168152602001915050602060405180830381600087803b1580156148f657600080fd5b505af115801561490a573d6000803e3d6000fd5b505050506040513d602081101561492057600080fd5b81019080805190602001909291905050509250600160009054906101000a900473ffffffffffffffffffffffffffffffffffffffff1673ffffffffffffffffffffffffffffffffffffffff16631a5b70ad8c6040518263ffffffff167c0100000000000000000000000000000000000000000000000000000000028152600401808273ffffffffffffffffffffffffffffffffffffffff1673ffffffffffffffffffffffffffffffffffffffff168152602001915050602060405180830381600087803b1580156149f057600080fd5b505af1158015614a04573d6000803e3d6000fd5b505050506040513d6020811015614a1a57600080fd5b81019080805190602001909291905050509150614a3687612fbb565b1515614a4157600080fd5b600260009054906101000a900473ffffffffffffffffffffffffffffffffffffffff1673ffffffffffffffffffffffffffffffffffffffff16637e0cfb0b8385428a8a6040518663ffffffff167c01000000000000000000000000000000000000000000000000000000000281526004018086815260200185815260200184815260200183815260200182815260200195505050505050602060405180830381600087803b158015614af257600080fd5b505af1158015614b06573d6000803e3d6000fd5b505050506040513d6020811015614b1c57600080fd5b810190808051906020019092919050505090507f7850a2295d57ebfcf7cbf0bef78b1e658ccd93e30d95c81507eca2dbf8c4d0ea818385878c8c8c8c60405180898152602001888152602001878152602001868152602001856000191660001916815260200180602001848152602001838152602001828103825285818151815260200191508051906020019060200280838360005b83811015614bcd578082015181840152602081019050614bb2565b50505050905001995050505050505050505060405180910390a15050505050505050505050565b828054600181600116156101000203166002900490600052602060002090601f016020900481019282601f10614c3557805160ff1916838001178555614c63565b82800160010185558215614c63579182015b82811115614c62578251825591602001919060010190614c47565b5b509050614c709190614c74565b5090565b614c9691905b80821115614c92576000816000905550600101614c7a565b5090565b905600a165627a7a723058208b8f72d4af9579133d44114e2ac1b4c1d8dffc726600709c75024e431e3550aa0029",
  "source": "pragma solidity 0.4.24;\n\nimport \"openzeppelin-solidity/contracts/ownership/Ownable.sol\";\nimport \"./AccountRegistryInterface.sol\";\nimport \"./SigningLogicInterface.sol\";\nimport \"./TokenEscrowMarketplace.sol\";\nimport \"./AttestationRepoInterface.sol\";\n\n/**\n * @title AttestationLogic manages the interactions with AttestationRepo\n * @notice Attestation Logic Logic provides a public interface for Bloom and\n *  users to submit attestations to the Attestation Repo.\n *  As the Bloom protocol matures, this contract can be upgraded to enable new\n * capabilities without needing to migrate the underlying Attestation Repo storage contract.\n */\ncontract AttestationLogic is Ownable{\n    AccountRegistryInterface public registry;\n    AttestationRepoInterface public attestationRepo;\n    SigningLogicInterface public signingLogic;\n    TokenEscrowMarketplace public tokenEscrowMarketplace;\n    address public admin;\n\n  /**\n   * @notice AttestationLogic constructor sets the implementation address of all related contracts\n   * @param _registry Address of deployed AccountRegistry implementation (upgradeable)\n   * @param _signingLogic Address of deployed signing logic implementation (upgradeable)\n   * @param _attestationRepo Address of deployed attestation repo (upgradeable)\n   * @param _tokenEscrowMarketplace Address of marketplace holding tokens which are\n   *  released to attesters upon completion of a job\n   */\n  constructor(\n    AccountRegistryInterface _registry,\n    AttestationRepoInterface _attestationRepo,\n    SigningLogicInterface _signingLogic,\n    TokenEscrowMarketplace _tokenEscrowMarketplace\n    ) public {\n    attestationRepo = _attestationRepo;\n    registry = _registry;\n    signingLogic = _signingLogic;\n    tokenEscrowMarketplace = _tokenEscrowMarketplace;\n    admin = owner;\n  }\n\n  event TraitAttested(\n    uint256 attestationId,\n    uint256 subjectId,\n    uint256 attesterId,\n    uint256 requesterId,\n    bytes32 dataHash,\n    uint256[] typeIds,\n    uint256 stakeValue,\n    uint256 expiresAt\n    );\n  event AttestationRejected(uint256 indexed attesterId, uint256 indexed requesterId);\n  event AttestationRevoked(uint256 indexed subjectId, uint256 attestationId, uint256 indexed revokerId);\n  event TypeCreated(string traitType);\n  event StakeSubmitted(uint256 indexed subjectId, uint256 indexed stakerId, uint256 attestationId, uint256 expiresAt);\n  event StakedTokensReclaimed(uint256 indexed stakerId, uint256 value);\n  event AccountRegistryChanged(address oldRegistry, address newRegistry);\n  event AttestationRepoChanged(address oldAttestationRepo, address newAttestationRepo);\n  event SigningLogicChanged(address oldSigningLogic, address newSigningLogic);\n  event TokenEscrowMarketplaceChanged(address oldTokenEscrowMarketplace, address newTokenEscrowMarketplace);\n  event AdminChanged(address oldAdmin, address newAdmin);\n\n  /**\n   * @dev Zero address not allowed\n   */\n  modifier nonZero(address _address) {\n    require(_address != 0);\n    _;\n  }\n\n  modifier onlyAdmin {\n    require(msg.sender == admin);\n    _;\n  }\n\n  struct Attestation {\n    uint256 attesterId;\n    uint256 completedAt;\n    uint256 stakeValue;\n    uint256 expiresAt;\n  }\n\n  // Mapping of nonce per subject. Sigs can only be used once\n  mapping(bytes32 => bool) public usedSignatures;\n\n  // Public list so others can check which types are supported\n  string[] public permittedTypesList;\n  // mapping for checking if a type is valid\n  // private because can't have getter for dynamically sized key\n  mapping(string => bool) private permittedTypesMapping;\n\n  /**\n   * @notice Function for attester to submit attestation from their own account) \n   * @dev Wrapper for attestForUser using msg.sender\n   * @param _subject User this attestation is about\n   * @param _requester User requesting and paying for this attestation in BLT\n   * @param _reward Payment to attester from requester in BLT\n   * @param _paymentNonce Nonce referenced in TokenEscrowMarketplace so payment sig can't be replayed\n   * @param _requesterSig Signature authorizing payment from requester to attester\n   * @param _dataHash Hash of data being attested and nonce\n   * @param _typeIds Array of trait type ids to validate\n   * param _requestNonce Nonce in sig signed by subject so it can't be replayed\n   * @param _subjectSig Signed authorization from subject with attestation agreement\n   */\n  function attest(\n    address _subject,\n    address _requester,\n    uint256 _reward,\n    bytes32 _paymentNonce,\n    bytes _requesterSig,\n    bytes32 _dataHash,\n    uint256[] _typeIds,\n    bytes32 _requestNonce,\n    bytes _subjectSig // Sig of subject with requester, attester, dataHash, requestNonce\n  ) public {\n    attestForUser(\n      _subject,\n      msg.sender,\n      _requester,\n      _reward,\n      _paymentNonce,\n      _requesterSig,\n      _dataHash,\n      _typeIds,\n      _requestNonce,\n      _subjectSig\n    );\n  }\n\n  /**\n   * @notice Submit attestation for a user by the owner of the AttestationRepo contract in order to pay the gas costs\n   * @dev Recover signer of delegation message. If attester matches delegation signature, add the attestation\n   * @param _subject user this attestation is about\n   * @param _attester user completing the attestation\n   * @param _requester user requesting this attestation be completed and paying for it in BLT\n   * @param _reward payment to attester from requester in BLT wei\n   * @param _paymentNonce nonce referenced in TokenEscrowMarketplace so payment sig can't be replayed\n   * @param _requesterSig signature authorizing payment from requester to attester\n   * @param _dataHash hash of data being attested and nonce\n   * @param _typeIds array of trait type ids to validate\n   * param _requestNonce nonce in sig signed by subject so it can't be replayed\n   * @param _subjectSig signed authorization from subject with attestation agreement\n   * @param _delegationSig signature authorizing attestation on behalf of attester\n   */\n  function attestFor(\n    address _subject,\n    address _attester,\n    address _requester,\n    uint256 _reward,\n    bytes32 _paymentNonce,\n    bytes _requesterSig,\n    bytes32 _dataHash,\n    uint256[] _typeIds,\n    bytes32 _requestNonce,\n    bytes _subjectSig, // Sig of subject with requester, attester, dataHash, requestNonce\n    bytes _delegationSig\n  ) public onlyAdmin {\n    // Reconstruct attestation delegation message\n    bytes32 _delegationDigest = signingLogic.generateAttestForDelegationSchemaHash(\n      _subject,\n      _requester,\n      _reward,\n      _paymentNonce,\n      _dataHash,\n      _typeIds,\n      _requestNonce\n    );\n    // Confirm attester address matches recovered address from signature\n    require(_attester == signingLogic.recoverSigner(_delegationDigest, _delegationSig));\n    attestForUser(\n      _subject,\n      _attester,\n      _requester,\n      _reward,\n      _paymentNonce,\n      _requesterSig,\n      _dataHash,\n      _typeIds,\n      _requestNonce,\n      _subjectSig\n    );\n  }\n\n  /**\n   * @notice Perform attestation\n   * @dev Verify valid certainty level and user addresses\n   * @param _subject user this attestation is about\n   * @param _attester user completing the attestation\n   * @param _requester user requesting this attestation be completed and paying for it in BLT\n   * @param _reward payment to attester from requester in BLT wei\n   * @param _paymentNonce nonce referenced in TokenEscrowMarketplace so payment sig can't be replayed\n   * @param _requesterSig signature authorizing payment from requester to attester\n   * @param _dataHash hash of data being attested and nonce\n   * @param _typeIds array of trait type ids to validate\n   * param _requestNonce nonce in sig signed by subject so it can't be replayed\n   * @param _subjectSig signed authorization from subject with attestation agreement\n   */\n  function attestForUser(\n    address _subject,\n    address _attester,\n    address _requester,\n    uint256 _reward,\n    bytes32 _paymentNonce,\n    bytes _requesterSig,\n    bytes32 _dataHash,\n    uint256[] _typeIds,\n    bytes32 _requestNonce,\n    bytes _subjectSig // Sig of subject with requester, attester, dataHash, requestNonce\n    ) private {\n    \n    validateSubjectSig(\n      _subject,\n      _attester,\n      _requester,\n      _dataHash,\n      _typeIds,\n      _requestNonce,\n      _subjectSig\n    );\n\n    submitAttestation(\n      _subject,\n      _attester,\n      _requester,\n      _dataHash,\n      _typeIds,\n      0,\n      0\n    );\n\n    if (_reward > 0) {\n      tokenEscrowMarketplace.requestTokenPayment(_requester, _attester, _reward, _paymentNonce, _requesterSig);\n    }\n  }\n\n  /**\n   * @notice Function for attester to reject an attestation and receive payment \n   *  without associating the negative attestation with the subject's bloomId\n   * @param _requester User requesting and paying for this attestation in BLT\n   * @param _reward Payment to attester from requester in BLT\n   * @param _paymentNonce Nonce referenced in TokenEscrowMarketplace so payment sig can't be replayed\n   * @param _requesterSig Signature authorizing payment from requester to attester\n   */\n  function contest(\n    address _requester,\n    uint256 _reward,\n    bytes32 _paymentNonce,\n    bytes _requesterSig\n  ) public {\n    contestForUser(\n      msg.sender,\n      _requester,\n      _reward,\n      _paymentNonce,\n      _requesterSig\n    );\n  }\n\n  /**\n   * @notice Function for attester to reject an attestation and receive payment \n   *  without associating the negative attestation with the subject's bloomId\n   *  Perform by admin on behalf of attester to pay gas fees\n   * @param _requester User requesting and paying for this attestation in BLT\n   * @param _attester user completing the attestation\n   * @param _reward Payment to attester from requester in BLT\n   * @param _paymentNonce Nonce referenced in TokenEscrowMarketplace so payment sig can't be replayed\n   * @param _requesterSig Signature authorizing payment from requester to attester\n   */\n  function contestFor(\n    address _attester,\n    address _requester,\n    uint256 _reward,\n    bytes32 _paymentNonce,\n    bytes _requesterSig,\n    bytes _delegationSig\n  ) public onlyAdmin {\n    // Reconstruct attestation delegation message\n    bytes32 _delegationDigest = signingLogic.generateContestForDelegationSchemaHash(\n      _requester,\n      _reward,\n      _paymentNonce\n    );\n    require(_attester == signingLogic.recoverSigner(_delegationDigest, _delegationSig));\n    contestForUser(\n      _attester,\n      _requester,\n      _reward,\n      _paymentNonce,\n      _requesterSig\n    );\n  }\n\n  /**\n   * @notice Private function for attester to reject an attestation and receive payment \n   *  without associating the negative attestation with the subject's bloomId\n   * @param _attester user completing the attestation\n   * @param _requester user requesting this attestation be completed and paying for it in BLT\n   * @param _reward payment to attester from requester in BLT wei\n   * @param _paymentNonce nonce referenced in TokenEscrowMarketplace so payment sig can't be replayed\n   * @param _requesterSig signature authorizing payment from requester to attester\n   */\n  function contestForUser(\n    address _attester,\n    address _requester,\n    uint256 _reward,\n    bytes32 _paymentNonce,\n    bytes _requesterSig\n    ) private {\n\n    uint256 _requesterId = registry.accountIdForAddress(_requester);\n    uint256 _attesterId = registry.accountIdForAddress(_attester);\n    \n    if (_reward > 0) {\n      tokenEscrowMarketplace.requestTokenPayment(_requester, _attester, _reward, _paymentNonce, _requesterSig);\n    }\n    emit AttestationRejected(_attesterId, _requesterId);\n  }\n\n  /**\n   * @notice Verify subject signature is valid and unused \n   * @param _subject user this attestation is about\n   * @param _attester user completing the attestation\n   * @param _requester user requesting this attestation be completed and paying for it in BLT\n   * @param _dataHash hash of data being attested and nonce\n   * @param _typeIds array of trait type ids to validate\n   * param _requestNonce Nonce in sig signed by subject so it can't be replayed\n   * @param _subjectSig Signed authorization from subject with attestation agreement\n   */\n  function validateSubjectSig(\n    address _subject,\n    address _attester,\n    address _requester,\n    bytes32 _dataHash,\n    uint256[] _typeIds,\n    bytes32 _requestNonce,\n    bytes _subjectSig\n  ) public {\n\n    require(!usedSignatures[keccak256(abi.encodePacked(_subjectSig))], \"Signature not unique\");\n    usedSignatures[keccak256(abi.encodePacked(_subjectSig))] = true;\n\n    require(_subject == signingLogic.recoverSigner(\n      signingLogic.generateRequestAttestationSchemaHash(\n      _subject,\n      _attester,\n      _requester,\n      _dataHash,\n      _typeIds,\n      _requestNonce\n    ), _subjectSig));\n  }\n\n  /**\n   * @notice Submit attestation to attestation repo\n   * @dev Separated into another funtion because otherwise call stack too deep\n   * @dev Verify valid certainty level and user addresses\n   * @param _subject user this attestation is about\n   * @param _attester user completing the attestation\n   * @param _requester user requesting this attestation be completed and paying for it in BLT\n   * @param _dataHash hash of data being attested and nonce\n   * @param _typeIds array of trait type ids to validate\n   * @param _stakeValue BLT to lock up in collateral contract\n   * @param _expiresAt Time when stake will expire\n   */\n  function submitAttestation(\n    address _subject,\n    address _attester,\n    address _requester,\n    bytes32 _dataHash,\n    uint256[] _typeIds,\n    uint256 _stakeValue,\n    uint256 _expiresAt\n  ) private{\n\n    uint256 _requesterId = registry.accountIdForAddress(_requester);\n    uint256 _attesterId = registry.accountIdForAddress(_attester);\n    uint256 _subjectId = registry.accountIdForAddress(_subject);\n\n    require(traitTypesExist(_typeIds));\n\n    uint256 _attestationId = attestationRepo.writeAttestation(\n      _subjectId,\n      _attesterId,\n      now,\n      _stakeValue,\n      _expiresAt\n    );\n\n    emit TraitAttested(\n      _attestationId,\n      _subjectId,\n      _attesterId,\n      _requesterId,\n      _dataHash,\n      _typeIds,\n      _stakeValue,\n      _expiresAt\n    );\n\n  }\n\n  /**\n   * @notice Add a new traitType to permitted types\n   * @dev Restricted to contract owner\n   * Cannot be in the list already, reverts if exists\n   * @param _traitType name of new trait\n   */\n  function createType(string _traitType) public onlyAdmin {\n    require(!permittedTypesMapping[_traitType]);\n\n    permittedTypesMapping[_traitType] = true;\n    permittedTypesList.push(_traitType);\n\n    emit TypeCreated(_traitType);\n  }\n\n  /**\n   * @notice Confirm each trait exists\n   * @dev reverts if trait does not exist\n   * @param _typeIds array of trait type ids to validate\n   * @return true if all traits exist, false if not\n   */\n  function traitTypesExist(uint256[] _typeIds) public view returns (bool) {\n    for (uint256 i = 0; i < _typeIds.length; i++) {\n      if (_typeIds[i] >= permittedTypesList.length) {\n        return false;\n      }\n    }\n    return true;\n  }\n\n  /**\n   * @notice Revoke an attestation by the subject, attester or the admin\n   * @dev Verify valid certainty level and user addresses\n   * @param _subjectId user this attestation is about\n   * @param _attestationId Id of the attestation to revoke\n   */\n  function revokeAttestation(\n    uint256 _subjectId,\n    uint256 _attestationId\n    ) public {\n\n      uint256 _senderId = registry.accountIdForAddress(msg.sender);\n\n      uint256 _attesterId;\n      uint256 _completedAt;\n      uint256 _stakeValue;\n      uint256 _expiresAt;\n\n      ( _attesterId,\n        _completedAt,\n        _stakeValue,\n        _expiresAt\n      ) = attestationRepo.readAttestation(\n        _subjectId,\n        _attestationId\n      );\n\n      require(\n        _senderId == _subjectId ||\n        _senderId == _attesterId ||\n        msg.sender == admin\n      );\n\n      require(_completedAt > 0);\n\n      require(_stakeValue == 0);\n\n      attestationRepo.revokeAttestation(_subjectId, _attestationId);\n      emit AttestationRevoked(_subjectId, _attestationId, _senderId);\n  }\n\n\n  /**\n   * @notice Submit an attestation and transfer tokens to a collateral contract from the staker\n   *  for the specified amount of time\n   * @param _subject User who is subject of attestation and of stake\n   * @param _value BLT to lock up in collateral contract\n   * @param _paymentNonce Nonce in PaymentSig to add randomness to payment authorization\n   * @param _paymentSig Signature from staker authorizing tokens to be released to collateral contract\n   * @param _dataHash Hash of data being attested and nonce\n   * @param _typeIds Array of trait type ids being attested\n   * param _requestNonce Nonce in sig signed by subject so it can't be replayed\n   * @param _subjectSig Signed authorization from subject with attestation agreement\n   * @param _stakeDuration Time until stake will be complete, max 1 year\n   */\n  function stake(\n    address _subject,\n    uint256 _value,\n    bytes32 _paymentNonce,\n    bytes _paymentSig,\n    bytes32 _dataHash,\n    uint256[] _typeIds,\n    bytes32 _requestNonce,\n    bytes _subjectSig,\n    uint256 _stakeDuration\n  ) public {\n    stakeForUser(\n      _subject,\n      msg.sender,\n      _value,\n      _paymentNonce,\n      _paymentSig,\n      _dataHash,\n      _typeIds,\n      _requestNonce,\n      _subjectSig,\n      _stakeDuration\n    );\n  }\n\n  /**\n   * @notice Submit an attestation and transfer tokens to a collateral contract from the staker\n   *  for the specified amount of time. Perform by admin on behalf of staker in order \n   *  to pay tx fees\n   * @param _subject User who is subject of attestation and of stake\n   * @param _staker User who is attesting and staking for subject\n   * @param _value BLT to lock up in collateral contract\n   * @param _paymentNonce Nonce in PaymentSig to add randomness to payment authorization\n   * @param _paymentSig Signature from staker authorizing tokens to be released to collateral contract\n   * @param _dataHash Hash of data being attested and nonce\n   * @param _typeIds Array of trait type ids being attested\n   * param _requestNonce Nonce in sig signed by subject so it can't be replayed\n   * @param _subjectSig Signed authorization from subject with attestation agreement\n   * @param _stakeDuration Time until stake will be complete, max 1 year\n   * @param _delegationSig signature authorizing attestation on behalf of staker\n   */\n  function stakeFor(\n    address _subject,\n    address _staker,\n    uint256 _value,\n    bytes32 _paymentNonce,\n    bytes _paymentSig,\n    bytes32 _dataHash,\n    uint256[] _typeIds,\n    bytes32 _requestNonce,\n    bytes _subjectSig,\n    uint256 _stakeDuration,\n    bytes _delegationSig\n  ) public onlyAdmin {\n    // Reconstruct stake delegation message\n    bytes32 _delegationDigest = signingLogic.generateStakeForDelegationSchemaHash(\n      _subject,\n      _value,\n      _paymentNonce,\n      _dataHash,\n      _typeIds,\n      _requestNonce,\n      _stakeDuration\n    );\n    require(_staker == signingLogic.recoverSigner(_delegationDigest, _delegationSig));\n    stakeForUser(\n      _subject,\n      _staker,\n      _value,\n      _paymentNonce,\n      _paymentSig,\n      _dataHash,\n      _typeIds,\n      _requestNonce,\n      _subjectSig,\n      _stakeDuration\n    );\n  }\n\n\n  /**\n   * @notice Submit an attestation and transfer tokens to a collateral contract from the staker\n   *  for the specified amount of time\n   * @param _subject User who is subject of attestation and of stake\n   * @param _staker User who is attesting and staking for subject\n   * @param _value BLT to lock up in collateral contract\n   * @param _paymentNonce Nonce in PaymentSig to add randomness to payment authorization\n   * @param _paymentSig Signature from staker authorizing tokens to be released to collateral contract\n   * @param _dataHash Hash of data being attested and nonce\n   * @param _typeIds Array of trait type ids being attested\n   * param _requestNonce Nonce in sig signed by subject so it can't be replayed\n   * @param _subjectSig Signed authorization from subject with attestation agreement\n   * @param _stakeDuration Time until stake will be complete, max 1 year\n   */\n  function stakeForUser(\n    address _subject,\n    address _staker,\n    uint256 _value,\n    bytes32 _paymentNonce,\n    bytes _paymentSig,\n    bytes32 _dataHash,\n    uint256[] _typeIds,\n    bytes32 _requestNonce,\n    bytes _subjectSig,\n    uint256 _stakeDuration\n    ) private {\n\n    validateSubjectSig(\n      _subject,\n      _staker,\n      _subject,\n      _dataHash,\n      _typeIds,\n      _requestNonce,\n      _subjectSig\n    );\n\n    uint256 _expiresAt = now + _stakeDuration;\n    require(_expiresAt < now + 366 days);\n\n    submitAttestation(\n      _subject,\n      _staker,\n      _subject,\n      _dataHash,\n      _typeIds,\n      _value,\n      _expiresAt\n    );\n\n    if (_value > 0) {\n      tokenEscrowMarketplace.requestTokenPayment(_staker, attestationRepo, _value, _paymentNonce, _paymentSig);\n    }\n  }\n\n  /**\n   * @notice Reclaim staked tokens for an expired stake\n   * @param _subjectId User who is subject of attestation and of stake\n   * @param _attestationId Id of attestation in attestationRepo\n   */\n  function reclaimStakedTokens(\n    uint256 _attestationId,\n    uint256 _subjectId\n    ) public {\n      reclaimStakedTokensForUser(_subjectId, msg.sender, _attestationId);\n  }\n\n  /**\n   * @notice Reclaim staked tokens for an expired stake on behalf of a user \n   *  in order to pay the gas costs\n   * @param _subjectId User who is subject of attestation and of stake\n   * @param _staker User who is attesting and staking for subject\n   * @param _attestationId Id of attestation in attestationRepo\n   */\n  function reclaimStakedTokensFor(\n    uint256 _subjectId,\n    address _staker,\n    uint256 _attestationId\n    ) public onlyAdmin {\n      reclaimStakedTokensForUser(_subjectId, _staker, _attestationId);\n  }\n\n  /**\n   * @notice Reclaim staked tokens for an expired stake\n   * @param _subjectId User who is subject of attestation and of stake\n   * @param _staker User who is attesting and staking for subject\n   * @param _attestationId Id of attestation in attestationRepo\n   */\n  function reclaimStakedTokensForUser(\n    uint256 _subjectId,\n    address _staker,\n    uint256 _attestationId\n  ) private {\n    uint256 _stakerId = registry.accountIdForAddress(_staker);\n\n    uint256 _stakeStakerId;\n    uint256 _completedAt;\n    uint256 _stakeValue;\n    uint256 _stakeExpiresAt;\n\n    (\n      _stakeStakerId,\n      _completedAt,\n      _stakeValue,\n      _stakeExpiresAt\n      ) = attestationRepo.readAttestation(_subjectId, _attestationId);\n\n    require(_stakerId == _stakeStakerId);\n    require(now >= _stakeExpiresAt);\n    require(_stakeValue > 0);\n\n    attestationRepo.writeStake(\n      _subjectId,\n      _attestationId,\n      0,\n      _stakeExpiresAt\n    );\n    attestationRepo.transferTokensToStaker(_staker, _stakeValue);\n    emit StakedTokensReclaimed(_stakerId, _stakeValue);\n  }\n\n  /**\n   * @notice End a stake early and reclaim tokens\n   * @param _subjectId User who is subject of attestation and of stake\n   * @param _attestationId Id of attestation in attestationRepo\n   */\n  function revokeStake(\n    uint256 _subjectId,\n    uint256 _attestationId\n    ) public {\n      revokeStakeForUser(_subjectId, msg.sender, _attestationId);\n  }\n\n  /**\n   * @notice End a stake early and reclaim tokens\n   *  Perform by admin on behalf of staker in order to pay tx fees\n   * @param _subjectId User who is subject of attestation and of stake\n   * @param _staker User who is attesting and staking for subject\n   * @param _attestationId Id of attestation in attestationRepo\n   * @param _delegationSig signature authorizing attestation on behalf of staker\n   */\n  function revokeStakeFor(\n    uint256 _subjectId,\n    address _staker,\n    uint256 _attestationId,\n    bytes _delegationSig\n  ) public onlyAdmin {\n    // Reconstruct stake delegation message\n    bytes32 _delegationDigest = signingLogic.generateRevokeStakeForDelegationSchemaHash(\n      _subjectId,\n      _attestationId\n    );\n    // Confirm attester address matches recovered address from signature\n    require(_staker == signingLogic.recoverSigner(_delegationDigest, _delegationSig));\n    revokeStakeForUser(_subjectId, _staker, _attestationId);\n  }\n\n\n  /**\n   * @notice End a stake early and reclaim tokens\n   * @param _subjectId User who is subject of attestation and of stake\n   * @param _staker User who is attesting and staking for subject\n   * @param _attestationId Id of attestation in attestationRepo\n   */\n  function revokeStakeForUser(\n    uint256 _subjectId,\n    address _staker,\n    uint256 _attestationId\n  ) private {\n    uint256 _stakerId = registry.accountIdForAddress(_staker);\n\n    uint256 _stakeStakerId;\n    uint256 _completedAt;\n    uint256 _stakeValue;\n    uint256 _stakeExpiresAt;\n    (_stakeStakerId, _completedAt, _stakeValue, _stakeExpiresAt) = attestationRepo.readAttestation(_subjectId, _attestationId);\n    require(_stakerId == _stakeStakerId);\n    require(_stakeExpiresAt > now);\n\n    attestationRepo.writeStake(\n      _subjectId,\n      _attestationId,\n      0,\n      now\n    );\n    attestationRepo.transferTokensToStaker(_staker, _stakeValue);\n    emit StakedTokensReclaimed(_stakerId, _stakeValue);\n  }\n\n  function setAdmin(address _newAdmin) public onlyOwner nonZero(_newAdmin) {\n    address _oldAdmin = admin;\n    admin = _newAdmin;\n    emit AdminChanged(_oldAdmin, admin);\n  }\n\n  /**\n   * @notice Change the address of AccountRegistry, which enables authorization of subject comments\n   * @dev Restricted to AttestationLogic owner and new address cannot be 0x0\n   * @param _newRegistry Address of new Account Registry contract\n   */\n  function setAccountRegistry(AccountRegistryInterface _newRegistry) public nonZero(_newRegistry) onlyOwner {\n    address oldRegistry = registry;\n    registry = _newRegistry;\n    // escrowRegistry = _newRegistry;\n    emit AccountRegistryChanged(oldRegistry, registry);\n  }\n\n  /**\n   * @notice Change the implementation of the SigningLogic contract by setting a new address\n   * @dev Restricted to AttestationLogic owner and new implementation address cannot be 0x0\n   * @param _newSigningLogic Address of new SigningLogic implementation\n   */\n  function setSigningLogic(SigningLogicInterface _newSigningLogic) public nonZero(_newSigningLogic) onlyOwner {\n    address oldSigningLogic = signingLogic;\n    signingLogic = _newSigningLogic;\n    emit SigningLogicChanged(oldSigningLogic, signingLogic);\n  }\n\n  /**\n   * @notice Change the implementation of the AttestationRepo contract by setting a new address\n   * @dev Restricted to AttestationLogic owner and new implementation address cannot be 0x0\n   * @param _newAttestationRepo Address of new SigningLogic implementation\n   */\n  function setAttestationRepo(AttestationRepoInterface _newAttestationRepo) public nonZero(_newAttestationRepo) onlyOwner {\n    address oldAttestationRepo = attestationRepo;\n    attestationRepo = _newAttestationRepo;\n    emit AttestationRepoChanged(oldAttestationRepo, attestationRepo);\n  }\n\n  /**\n   * @notice Change the implementation of the TokenEscrowMarketplace contract by setting a new address\n   * @dev Restricted to owner and new implementation address cannot be 0x0\n   * @param _newTokenEscrowMarketplace Address of new SigningLogic implementation\n   */\n  function setTokenEscrowMarketplace(TokenEscrowMarketplace _newTokenEscrowMarketplace) public nonZero(_newTokenEscrowMarketplace) onlyOwner {\n    address oldTokenEscrowMarketplace = tokenEscrowMarketplace;\n    tokenEscrowMarketplace = _newTokenEscrowMarketplace;\n    emit TokenEscrowMarketplaceChanged(oldTokenEscrowMarketplace, tokenEscrowMarketplace);\n  }\n\n}\n",
  "sourcePath": "/Users/isaacpatka/Bloom/bloom-web/contracts/AttestationLogic.sol",
  "compiler": {
    "name": "solc",
    "version": "0.4.24+commit.e67f0147.Emscripten.clang"
  },
  "schemaVersion": "2.0.1",
  "updatedAt": "2018-07-27T01:29:17.184Z"
}