{
  "contractName": "AttestationRepo",
  "abi": [
    {
      "constant": true,
      "inputs": [],
      "name": "attestationLogic",
      "outputs": [
        {
          "name": "",
          "type": "address"
        }
      ],
      "payable": false,
      "stateMutability": "view",
      "type": "function"
    },
    {
      "constant": false,
      "inputs": [],
      "name": "unpause",
      "outputs": [],
      "payable": false,
      "stateMutability": "nonpayable",
      "type": "function"
    },
    {
      "constant": true,
      "inputs": [],
      "name": "paused",
      "outputs": [
        {
          "name": "",
          "type": "bool"
        }
      ],
      "payable": false,
      "stateMutability": "view",
      "type": "function"
    },
    {
      "constant": false,
      "inputs": [],
      "name": "renounceOwnership",
      "outputs": [],
      "payable": false,
      "stateMutability": "nonpayable",
      "type": "function"
    },
    {
      "constant": false,
      "inputs": [],
      "name": "pause",
      "outputs": [],
      "payable": false,
      "stateMutability": "nonpayable",
      "type": "function"
    },
    {
      "constant": true,
      "inputs": [],
      "name": "owner",
      "outputs": [
        {
          "name": "",
          "type": "address"
        }
      ],
      "payable": false,
      "stateMutability": "view",
      "type": "function"
    },
    {
      "constant": true,
      "inputs": [
        {
          "name": "",
          "type": "uint256"
        },
        {
          "name": "",
          "type": "uint256"
        }
      ],
      "name": "attestations",
      "outputs": [
        {
          "name": "attesterId",
          "type": "uint256"
        },
        {
          "name": "completedAt",
          "type": "uint256"
        },
        {
          "name": "stakeValue",
          "type": "uint256"
        },
        {
          "name": "expiresAt",
          "type": "uint256"
        }
      ],
      "payable": false,
      "stateMutability": "view",
      "type": "function"
    },
    {
      "constant": false,
      "inputs": [
        {
          "name": "_newOwner",
          "type": "address"
        }
      ],
      "name": "transferOwnership",
      "outputs": [],
      "payable": false,
      "stateMutability": "nonpayable",
      "type": "function"
    },
    {
      "constant": true,
      "inputs": [],
      "name": "token",
      "outputs": [
        {
          "name": "",
          "type": "address"
        }
      ],
      "payable": false,
      "stateMutability": "view",
      "type": "function"
    },
    {
      "inputs": [
        {
          "name": "_token",
          "type": "address"
        },
        {
          "name": "_attestationLogic",
          "type": "address"
        }
      ],
      "payable": false,
      "stateMutability": "nonpayable",
      "type": "constructor"
    },
    {
      "anonymous": false,
      "inputs": [
        {
          "indexed": false,
          "name": "oldAttestationLogic",
          "type": "address"
        },
        {
          "indexed": false,
          "name": "newAttestationLogic",
          "type": "address"
        }
      ],
      "name": "AttestationLogicChanged",
      "type": "event"
    },
    {
      "anonymous": false,
      "inputs": [],
      "name": "Pause",
      "type": "event"
    },
    {
      "anonymous": false,
      "inputs": [],
      "name": "Unpause",
      "type": "event"
    },
    {
      "anonymous": false,
      "inputs": [
        {
          "indexed": true,
          "name": "previousOwner",
          "type": "address"
        }
      ],
      "name": "OwnershipRenounced",
      "type": "event"
    },
    {
      "anonymous": false,
      "inputs": [
        {
          "indexed": true,
          "name": "previousOwner",
          "type": "address"
        },
        {
          "indexed": true,
          "name": "newOwner",
          "type": "address"
        }
      ],
      "name": "OwnershipTransferred",
      "type": "event"
    },
    {
      "constant": false,
      "inputs": [
        {
          "name": "_newAttestationLogic",
          "type": "address"
        }
      ],
      "name": "setAttestationLogic",
      "outputs": [],
      "payable": false,
      "stateMutability": "nonpayable",
      "type": "function"
    },
    {
      "constant": false,
      "inputs": [
        {
          "name": "_subjectId",
          "type": "uint256"
        },
        {
          "name": "_attesterId",
          "type": "uint256"
        },
        {
          "name": "_timestamp",
          "type": "uint256"
        },
        {
          "name": "_stakeValue",
          "type": "uint256"
        },
        {
          "name": "_expiresAt",
          "type": "uint256"
        }
      ],
      "name": "writeAttestation",
      "outputs": [
        {
          "name": "",
          "type": "uint256"
        }
      ],
      "payable": false,
      "stateMutability": "nonpayable",
      "type": "function"
    },
    {
      "constant": true,
      "inputs": [
        {
          "name": "_subjectId",
          "type": "uint256"
        },
        {
          "name": "_attestationId",
          "type": "uint256"
        }
      ],
      "name": "readAttestation",
      "outputs": [
        {
          "name": "_attesterId",
          "type": "uint256"
        },
        {
          "name": "_completedAt",
          "type": "uint256"
        },
        {
          "name": "_stakeValue",
          "type": "uint256"
        },
        {
          "name": "_expiresAt",
          "type": "uint256"
        }
      ],
      "payable": false,
      "stateMutability": "view",
      "type": "function"
    },
    {
      "constant": false,
      "inputs": [
        {
          "name": "_subjectId",
          "type": "uint256"
        },
        {
          "name": "_attestationId",
          "type": "uint256"
        }
      ],
      "name": "revokeAttestation",
      "outputs": [],
      "payable": false,
      "stateMutability": "nonpayable",
      "type": "function"
    },
    {
      "constant": false,
      "inputs": [
        {
          "name": "_subjectId",
          "type": "uint256"
        },
        {
          "name": "_attestationId",
          "type": "uint256"
        },
        {
          "name": "_stakeValue",
          "type": "uint256"
        },
        {
          "name": "_expiresAt",
          "type": "uint256"
        }
      ],
      "name": "writeStake",
      "outputs": [],
      "payable": false,
      "stateMutability": "nonpayable",
      "type": "function"
    },
    {
      "constant": false,
      "inputs": [
        {
          "name": "_staker",
          "type": "address"
        },
        {
          "name": "_value",
          "type": "uint256"
        }
      ],
      "name": "transferTokensToStaker",
      "outputs": [],
      "payable": false,
      "stateMutability": "nonpayable",
      "type": "function"
    }
  ],
  "bytecode": "0x608060405260008060146101000a81548160ff02191690831515021790555034801561002a57600080fd5b506040516040806110ee8339810180604052810190808051906020019092919080519060200190929190505050336000806101000a81548173ffffffffffffffffffffffffffffffffffffffff021916908373ffffffffffffffffffffffffffffffffffffffff16021790555081600160006101000a81548173ffffffffffffffffffffffffffffffffffffffff021916908373ffffffffffffffffffffffffffffffffffffffff16021790555080600260006101000a81548173ffffffffffffffffffffffffffffffffffffffff021916908373ffffffffffffffffffffffffffffffffffffffff1602179055505050610fc48061012a6000396000f3006080604052600436106100db576000357c0100000000000000000000000000000000000000000000000000000000900463ffffffff16806316bedd85146100e05780633c96be541461012d5780633d0327f4146101705780633f4ba83a146101c757806353494214146101de5780635c975abb146102295780635e44183214610258578063715018a6146102b85780637e0cfb0b146102cf5780638456cb59146103385780638da5cb5b1461034f578063dd03888e146103a6578063f2fde38b14610406578063f9494c0914610449578063fc0c546a14610480575b600080fd5b3480156100ec57600080fd5b5061012b600480360381019080803573ffffffffffffffffffffffffffffffffffffffff169060200190929190803590602001909291905050506104d7565b005b34801561013957600080fd5b5061016e600480360381019080803573ffffffffffffffffffffffffffffffffffffffff1690602001909291905050506105a0565b005b34801561017c57600080fd5b50610185610748565b604051808273ffffffffffffffffffffffffffffffffffffffff1673ffffffffffffffffffffffffffffffffffffffff16815260200191505060405180910390f35b3480156101d357600080fd5b506101dc61076e565b005b3480156101ea57600080fd5b506102276004803603810190808035906020019092919080359060200190929190803590602001909291908035906020019092919050505061082c565b005b34801561023557600080fd5b5061023e6108d3565b604051808215151515815260200191505060405180910390f35b34801561026457600080fd5b5061028d60048036038101908080359060200190929190803590602001909291905050506108e6565b6040518085815260200184815260200183815260200182815260200194505050505060405180910390f35b3480156102c457600080fd5b506102cd610944565b005b3480156102db57600080fd5b506103226004803603810190808035906020019092919080359060200190929190803590602001909291908035906020019092919080359060200190929190505050610a46565b6040518082815260200191505060405180910390f35b34801561034457600080fd5b5061034d610b41565b005b34801561035b57600080fd5b50610364610c01565b604051808273ffffffffffffffffffffffffffffffffffffffff1673ffffffffffffffffffffffffffffffffffffffff16815260200191505060405180910390f35b3480156103b257600080fd5b506103db6004803603810190808035906020019092919080359060200190929190505050610c26565b6040518085815260200184815260200183815260200182815260200194505050505060405180910390f35b34801561041257600080fd5b50610447600480360381019080803573ffffffffffffffffffffffffffffffffffffffff169060200190929190505050610c72565b005b34801561045557600080fd5b5061047e6004803603810190808035906020019092919080359060200190929190505050610cd9565b005b34801561048c57600080fd5b50610495610d8a565b604051808273ffffffffffffffffffffffffffffffffffffffff1673ffffffffffffffffffffffffffffffffffffffff16815260200191505060405180910390f35b600260009054906101000a900473ffffffffffffffffffffffffffffffffffffffff1673ffffffffffffffffffffffffffffffffffffffff163373ffffffffffffffffffffffffffffffffffffffff1614151561053357600080fd5b600060149054906101000a900460ff1615151561054f57600080fd5b61059c8282600160009054906101000a900473ffffffffffffffffffffffffffffffffffffffff1673ffffffffffffffffffffffffffffffffffffffff16610db09092919063ffffffff16565b5050565b60008060009054906101000a900473ffffffffffffffffffffffffffffffffffffffff1673ffffffffffffffffffffffffffffffffffffffff163373ffffffffffffffffffffffffffffffffffffffff161415156105fd57600080fd5b8160008173ffffffffffffffffffffffffffffffffffffffff161415151561062457600080fd5b600260009054906101000a900473ffffffffffffffffffffffffffffffffffffffff16915082600260006101000a81548173ffffffffffffffffffffffffffffffffffffffff021916908373ffffffffffffffffffffffffffffffffffffffff1602179055507f2af55aac4712836d5a0b8a96df3be46cda09e7011355d56e7a1e2c7b72d736f382600260009054906101000a900473ffffffffffffffffffffffffffffffffffffffff16604051808373ffffffffffffffffffffffffffffffffffffffff1673ffffffffffffffffffffffffffffffffffffffff1681526020018273ffffffffffffffffffffffffffffffffffffffff1673ffffffffffffffffffffffffffffffffffffffff1681526020019250505060405180910390a1505050565b600260009054906101000a900473ffffffffffffffffffffffffffffffffffffffff1681565b6000809054906101000a900473ffffffffffffffffffffffffffffffffffffffff1673ffffffffffffffffffffffffffffffffffffffff163373ffffffffffffffffffffffffffffffffffffffff161415156107c957600080fd5b600060149054906101000a900460ff1615156107e457600080fd5b60008060146101000a81548160ff0219169083151502179055507f7805862f689e2f13df9f062ff482ad3ad112aca9e0847911ed832e158c525b3360405160405180910390a1565b6000600260009054906101000a900473ffffffffffffffffffffffffffffffffffffffff1673ffffffffffffffffffffffffffffffffffffffff163373ffffffffffffffffffffffffffffffffffffffff1614151561088a57600080fd5b60036000868152602001908152602001600020848154811015156108aa57fe5b906000526020600020906004020190508281600201819055508181600301819055505050505050565b600060149054906101000a900460ff1681565b6000806000806000600360008881526020019081526020016000208681548110151561090e57fe5b90600052602060002090600402019050806000015494508060010154935080600201549250806003015491505092959194509250565b6000809054906101000a900473ffffffffffffffffffffffffffffffffffffffff1673ffffffffffffffffffffffffffffffffffffffff163373ffffffffffffffffffffffffffffffffffffffff1614151561099f57600080fd5b6000809054906101000a900473ffffffffffffffffffffffffffffffffffffffff1673ffffffffffffffffffffffffffffffffffffffff167ff8df31144d9c2f0f6b59d69b8b98abd5459d07f2742c4df920b25aae33c6482060405160405180910390a260008060006101000a81548173ffffffffffffffffffffffffffffffffffffffff021916908373ffffffffffffffffffffffffffffffffffffffff160217905550565b600080600260009054906101000a900473ffffffffffffffffffffffffffffffffffffffff1673ffffffffffffffffffffffffffffffffffffffff163373ffffffffffffffffffffffffffffffffffffffff16141515610aa557600080fd5b60016003600089815260200190815260200160002060806040519081016040528089815260200188815260200187815260200186815250908060018154018082558091505090600182039060005260206000209060040201600090919290919091506000820151816000015560208201518160010155604082015181600201556060820151816003015550500390508091505095945050505050565b6000809054906101000a900473ffffffffffffffffffffffffffffffffffffffff1673ffffffffffffffffffffffffffffffffffffffff163373ffffffffffffffffffffffffffffffffffffffff16141515610b9c57600080fd5b600060149054906101000a900460ff16151515610bb857600080fd5b6001600060146101000a81548160ff0219169083151502179055507f6985a02210a168e66602d3235cb6db0e70f92b3ba4d376a33c0f3d9434bff62560405160405180910390a1565b6000809054906101000a900473ffffffffffffffffffffffffffffffffffffffff1681565b600360205281600052604060002081815481101515610c4157fe5b9060005260206000209060040201600091509150508060000154908060010154908060020154908060030154905084565b6000809054906101000a900473ffffffffffffffffffffffffffffffffffffffff1673ffffffffffffffffffffffffffffffffffffffff163373ffffffffffffffffffffffffffffffffffffffff16141515610ccd57600080fd5b610cd681610e9e565b50565b600260009054906101000a900473ffffffffffffffffffffffffffffffffffffffff1673ffffffffffffffffffffffffffffffffffffffff163373ffffffffffffffffffffffffffffffffffffffff16141515610d3557600080fd5b6003600083815260200190815260200160002081815481101515610d5557fe5b906000526020600020906004020160008082016000905560018201600090556002820160009055600382016000905550505050565b600160009054906101000a900473ffffffffffffffffffffffffffffffffffffffff1681565b8273ffffffffffffffffffffffffffffffffffffffff1663a9059cbb83836040518363ffffffff167c0100000000000000000000000000000000000000000000000000000000028152600401808373ffffffffffffffffffffffffffffffffffffffff1673ffffffffffffffffffffffffffffffffffffffff16815260200182815260200192505050602060405180830381600087803b158015610e5357600080fd5b505af1158015610e67573d6000803e3d6000fd5b505050506040513d6020811015610e7d57600080fd5b81019080805190602001909291905050501515610e9957600080fd5b505050565b600073ffffffffffffffffffffffffffffffffffffffff168173ffffffffffffffffffffffffffffffffffffffff1614151515610eda57600080fd5b8073ffffffffffffffffffffffffffffffffffffffff166000809054906101000a900473ffffffffffffffffffffffffffffffffffffffff1673ffffffffffffffffffffffffffffffffffffffff167f8be0079c531659141344cd1fd0a4f28419497f9722a3daafe3b4186f6b6457e060405160405180910390a3806000806101000a81548173ffffffffffffffffffffffffffffffffffffffff021916908373ffffffffffffffffffffffffffffffffffffffff160217905550505600a165627a7a723058204599160a12aff6997555905e42557d317fbac72285a119ddf76484b83606454b0029",
  "source": "pragma solidity 0.4.24;\n\nimport \"openzeppelin-solidity/contracts/ownership/Ownable.sol\";\nimport \"openzeppelin-solidity/contracts/lifecycle/Pausable.sol\";\nimport \"openzeppelin-solidity/contracts/token/ERC20/SafeERC20.sol\";\nimport \"openzeppelin-solidity/contracts/token/ERC20/ERC20.sol\";\nimport \"./AttestationRepoInterface.sol\";\n\n/**\n * @title AttestationRepo stores attestations for the Bloom protocol\n * @notice Attestation Repo implements the data structures to store attestations\n *  and the low-level read/ write functions. The functions are not publicly accessible.\n *  Attestation Logic implements the public functions which access the functions in Attestation Repo.\n */\ncontract AttestationRepo is Ownable, Pausable, AttestationRepoInterface{\n  using SafeERC20 for ERC20;\n  ERC20 public token;\n  address public attestationLogic;\n\n  /**\n   * @notice AttestationRepo constructor sets the implementation address of AttestationLogic and AccountRegistry\n   * @param _attestationLogic Address of deployed AttestationLogic implementation\n   */\n  constructor(\n    ERC20 _token,\n    address _attestationLogic\n    ) public {\n    token = _token;\n    attestationLogic = _attestationLogic;\n  }\n\n  // Map BloomId to array of attestations\n  mapping(uint256 => Attestation[]) public attestations;\n\n  struct Attestation {\n    uint256 attesterId;\n    uint256 completedAt;\n    uint256 stakeValue;\n    uint256 expiresAt;\n  }\n\n  event AttestationLogicChanged(address oldAttestationLogic, address newAttestationLogic);\n\n  modifier onlyAttestationLogic() {\n    require(msg.sender == attestationLogic);\n    _;\n  }\n\n  /**\n   * @dev Zero address not allowed\n   */\n  modifier nonZero(address _address) {\n    require(_address != 0);\n    _;\n  }\n\n  /**\n   * @notice Change the address of Attestion Logic which has write control over attestations\n   * @dev Restricted to AttestationRepo owner and new address cannot be 0x0\n   * @param _newAttestationLogic Address of new Attestation Logic contract\n   */\n  function setAttestationLogic(address _newAttestationLogic) external onlyOwner nonZero(_newAttestationLogic) {\n    address oldAttestationLogic = attestationLogic;\n    attestationLogic = _newAttestationLogic;\n    emit AttestationLogicChanged(oldAttestationLogic, attestationLogic);\n  }\n\n  /**\n   * @notice Write a new attestation to the repo\n   * @dev Access restricted to attestationLogic contract\n   * @param _subjectId User whose data is being confirmed by attester\n   * @param _attesterId User who is confirming subject's data\n   * @param _timestamp Timestamp when this attestation was completed\n   * @param _stakeValue BLT amount for this stake\n   * @param _expiresAt Time when this stake expires and tokens can be released\n   * @return AttestationId\n   */\n  function writeAttestation(\n    uint256 _subjectId,\n    uint256 _attesterId,\n    uint256 _timestamp,\n    uint256 _stakeValue,\n    uint256 _expiresAt\n    ) external onlyAttestationLogic returns (uint256) {\n\n    uint256 _attestationId = attestations[_subjectId].push(\n      Attestation(\n        _attesterId,\n        _timestamp,\n        _stakeValue,\n        _expiresAt\n      )\n    ) - 1;\n\n    return _attestationId;\n  }\n\n  /**\n   * @notice Looks up attestationRequest by subject and request Ids\n   * @dev Gets pointer to attestationRequest struct and returns fields individually\n   * @param _subjectId User who is the subject of the attestation\n   * @param _attestationId identifier for specific attestation \n   * @return each field of an attestation\n   */\n  function readAttestation(uint256 _subjectId, uint256 _attestationId) external view returns (\n    uint256 _attesterId,\n    uint256 _completedAt,\n    uint256 _stakeValue,\n    uint256 _expiresAt\n  ) {\n    // _request is pointer to specific attestation request in storage\n    Attestation storage _attestation = attestations[_subjectId][_attestationId];\n    _attesterId = _attestation.attesterId;\n    _completedAt = _attestation.completedAt;\n    _stakeValue = _attestation.stakeValue;\n    _expiresAt = _attestation.expiresAt;\n  }\n\n  /**\n   * @notice Nullifies the fields of an attestation\n   * @dev Leaves a hole in the attestations array\n   * @param _subjectId User who is the subject of the attestation\n   * @param _attestationId identifier for specific attestation \n   */\n  function revokeAttestation(uint256 _subjectId, uint256 _attestationId) external onlyAttestationLogic {\n    delete attestations[_subjectId][_attestationId];\n  }\n\n  /**\n   * @notice Update stake fields on an existing attestation\n   * @dev Access restricted to attestationLogic contract\n   * @param _subjectId User whose data is being confirmed by attester\n   * @param _attestationId Attestation this stake is referencing\n   * @param _stakeValue BLT amount for this stake\n   * @param _expiresAt Time when this stake expires and tokens can be released\n   */\n  function writeStake(\n    uint256 _subjectId,\n    uint256 _attestationId,\n    uint256 _stakeValue,\n    uint256 _expiresAt\n    ) external onlyAttestationLogic {\n    Attestation storage _attestation  = attestations[_subjectId][_attestationId];\n    _attestation.stakeValue = _stakeValue;\n    _attestation.expiresAt = _expiresAt;\n  }\n\n  function transferTokensToStaker(\n    address _staker,\n    uint256 _value\n    ) external onlyAttestationLogic whenNotPaused {\n    token.safeTransfer(_staker, _value);\n  }\n}",
  "sourcePath": "/Users/isaacpatka/Bloom/bloom-web/contracts/AttestationRepo.sol",
  "compiler": {
    "name": "solc",
    "version": "0.4.24+commit.e67f0147.Emscripten.clang"
  },
  "schemaVersion": "2.0.1",
  "updatedAt": "2018-07-27T01:29:17.191Z"
}