{
  "contractName": "TokenEscrowMarketplace",
  "abi": [
    {
      "constant": true,
      "inputs": [],
      "name": "attestationLogic",
      "outputs": [
        {
          "name": "",
          "type": "address"
        }
      ],
      "payable": false,
      "stateMutability": "view",
      "type": "function"
    },
    {
      "constant": false,
      "inputs": [],
      "name": "unpause",
      "outputs": [],
      "payable": false,
      "stateMutability": "nonpayable",
      "type": "function"
    },
    {
      "constant": true,
      "inputs": [],
      "name": "signingLogic",
      "outputs": [
        {
          "name": "",
          "type": "address"
        }
      ],
      "payable": false,
      "stateMutability": "view",
      "type": "function"
    },
    {
      "constant": true,
      "inputs": [],
      "name": "paused",
      "outputs": [
        {
          "name": "",
          "type": "bool"
        }
      ],
      "payable": false,
      "stateMutability": "view",
      "type": "function"
    },
    {
      "constant": false,
      "inputs": [],
      "name": "renounceOwnership",
      "outputs": [],
      "payable": false,
      "stateMutability": "nonpayable",
      "type": "function"
    },
    {
      "constant": true,
      "inputs": [],
      "name": "registry",
      "outputs": [
        {
          "name": "",
          "type": "address"
        }
      ],
      "payable": false,
      "stateMutability": "view",
      "type": "function"
    },
    {
      "constant": false,
      "inputs": [],
      "name": "pause",
      "outputs": [],
      "payable": false,
      "stateMutability": "nonpayable",
      "type": "function"
    },
    {
      "constant": true,
      "inputs": [],
      "name": "owner",
      "outputs": [
        {
          "name": "",
          "type": "address"
        }
      ],
      "payable": false,
      "stateMutability": "view",
      "type": "function"
    },
    {
      "constant": true,
      "inputs": [],
      "name": "marketplaceAdmin",
      "outputs": [
        {
          "name": "",
          "type": "address"
        }
      ],
      "payable": false,
      "stateMutability": "view",
      "type": "function"
    },
    {
      "constant": false,
      "inputs": [
        {
          "name": "_newOwner",
          "type": "address"
        }
      ],
      "name": "transferOwnership",
      "outputs": [],
      "payable": false,
      "stateMutability": "nonpayable",
      "type": "function"
    },
    {
      "constant": true,
      "inputs": [
        {
          "name": "",
          "type": "uint256"
        }
      ],
      "name": "tokenEscrow",
      "outputs": [
        {
          "name": "",
          "type": "uint256"
        }
      ],
      "payable": false,
      "stateMutability": "view",
      "type": "function"
    },
    {
      "constant": true,
      "inputs": [
        {
          "name": "",
          "type": "bytes32"
        }
      ],
      "name": "usedSignatures",
      "outputs": [
        {
          "name": "",
          "type": "bool"
        }
      ],
      "payable": false,
      "stateMutability": "view",
      "type": "function"
    },
    {
      "constant": true,
      "inputs": [],
      "name": "token",
      "outputs": [
        {
          "name": "",
          "type": "address"
        }
      ],
      "payable": false,
      "stateMutability": "view",
      "type": "function"
    },
    {
      "inputs": [
        {
          "name": "_token",
          "type": "address"
        },
        {
          "name": "_registry",
          "type": "address"
        },
        {
          "name": "_signingLogic",
          "type": "address"
        },
        {
          "name": "_attestationLogic",
          "type": "address"
        }
      ],
      "payable": false,
      "stateMutability": "nonpayable",
      "type": "constructor"
    },
    {
      "anonymous": false,
      "inputs": [
        {
          "indexed": false,
          "name": "subject",
          "type": "uint256"
        },
        {
          "indexed": false,
          "name": "amount",
          "type": "uint256"
        }
      ],
      "name": "TokenMarketplaceWithdrawal",
      "type": "event"
    },
    {
      "anonymous": false,
      "inputs": [
        {
          "indexed": false,
          "name": "escrowPayer",
          "type": "uint256"
        },
        {
          "indexed": false,
          "name": "escrowPayee",
          "type": "address"
        },
        {
          "indexed": false,
          "name": "amount",
          "type": "uint256"
        }
      ],
      "name": "TokenMarketplaceEscrowPayment",
      "type": "event"
    },
    {
      "anonymous": false,
      "inputs": [
        {
          "indexed": false,
          "name": "escrowPayer",
          "type": "uint256"
        },
        {
          "indexed": false,
          "name": "amount",
          "type": "uint256"
        }
      ],
      "name": "TokenMarketplaceDeposit",
      "type": "event"
    },
    {
      "anonymous": false,
      "inputs": [
        {
          "indexed": false,
          "name": "oldSigningLogic",
          "type": "address"
        },
        {
          "indexed": false,
          "name": "newSigningLogic",
          "type": "address"
        }
      ],
      "name": "SigningLogicChanged",
      "type": "event"
    },
    {
      "anonymous": false,
      "inputs": [
        {
          "indexed": false,
          "name": "oldAttestationLogic",
          "type": "address"
        },
        {
          "indexed": false,
          "name": "newAttestationLogic",
          "type": "address"
        }
      ],
      "name": "AttestationLogicChanged",
      "type": "event"
    },
    {
      "anonymous": false,
      "inputs": [
        {
          "indexed": false,
          "name": "oldRegistry",
          "type": "address"
        },
        {
          "indexed": false,
          "name": "newRegistry",
          "type": "address"
        }
      ],
      "name": "AccountRegistryChanged",
      "type": "event"
    },
    {
      "anonymous": false,
      "inputs": [
        {
          "indexed": false,
          "name": "oldMarketplaceAdmin",
          "type": "address"
        },
        {
          "indexed": false,
          "name": "newMarketplaceAdmin",
          "type": "address"
        }
      ],
      "name": "MarketplaceAdminChanged",
      "type": "event"
    },
    {
      "anonymous": false,
      "inputs": [],
      "name": "Pause",
      "type": "event"
    },
    {
      "anonymous": false,
      "inputs": [],
      "name": "Unpause",
      "type": "event"
    },
    {
      "anonymous": false,
      "inputs": [
        {
          "indexed": true,
          "name": "previousOwner",
          "type": "address"
        }
      ],
      "name": "OwnershipRenounced",
      "type": "event"
    },
    {
      "anonymous": false,
      "inputs": [
        {
          "indexed": true,
          "name": "previousOwner",
          "type": "address"
        },
        {
          "indexed": true,
          "name": "newOwner",
          "type": "address"
        }
      ],
      "name": "OwnershipTransferred",
      "type": "event"
    },
    {
      "constant": false,
      "inputs": [
        {
          "name": "_newMarketplaceAdmin",
          "type": "address"
        }
      ],
      "name": "setMarketplaceAdmin",
      "outputs": [],
      "payable": false,
      "stateMutability": "nonpayable",
      "type": "function"
    },
    {
      "constant": false,
      "inputs": [
        {
          "name": "_newSigningLogic",
          "type": "address"
        }
      ],
      "name": "setSigningLogic",
      "outputs": [],
      "payable": false,
      "stateMutability": "nonpayable",
      "type": "function"
    },
    {
      "constant": false,
      "inputs": [
        {
          "name": "_newAttestationLogic",
          "type": "address"
        }
      ],
      "name": "setAttestationLogic",
      "outputs": [],
      "payable": false,
      "stateMutability": "nonpayable",
      "type": "function"
    },
    {
      "constant": false,
      "inputs": [
        {
          "name": "_newRegistry",
          "type": "address"
        }
      ],
      "name": "setAccountRegistry",
      "outputs": [],
      "payable": false,
      "stateMutability": "nonpayable",
      "type": "function"
    },
    {
      "constant": false,
      "inputs": [
        {
          "name": "_sender",
          "type": "address"
        },
        {
          "name": "_amount",
          "type": "uint256"
        },
        {
          "name": "_nonce",
          "type": "bytes32"
        },
        {
          "name": "_delegationSig",
          "type": "bytes"
        }
      ],
      "name": "moveTokensToEscrowLockupFor",
      "outputs": [],
      "payable": false,
      "stateMutability": "nonpayable",
      "type": "function"
    },
    {
      "constant": false,
      "inputs": [
        {
          "name": "_amount",
          "type": "uint256"
        }
      ],
      "name": "moveTokensToEscrowLockup",
      "outputs": [],
      "payable": false,
      "stateMutability": "nonpayable",
      "type": "function"
    },
    {
      "constant": false,
      "inputs": [
        {
          "name": "_amount",
          "type": "uint256"
        }
      ],
      "name": "releaseTokensFromEscrow",
      "outputs": [],
      "payable": false,
      "stateMutability": "nonpayable",
      "type": "function"
    },
    {
      "constant": false,
      "inputs": [
        {
          "name": "_payer",
          "type": "address"
        },
        {
          "name": "_amount",
          "type": "uint256"
        }
      ],
      "name": "releaseTokensFromEscrowFor",
      "outputs": [],
      "payable": false,
      "stateMutability": "nonpayable",
      "type": "function"
    },
    {
      "constant": false,
      "inputs": [
        {
          "name": "_payer",
          "type": "address"
        },
        {
          "name": "_receiver",
          "type": "address"
        },
        {
          "name": "_amount",
          "type": "uint256"
        },
        {
          "name": "_nonce",
          "type": "bytes32"
        },
        {
          "name": "_releaseSig",
          "type": "bytes"
        }
      ],
      "name": "requestTokenPayment",
      "outputs": [],
      "payable": false,
      "stateMutability": "nonpayable",
      "type": "function"
    }
  ],
  "bytecode": "0x608060405260008060146101000a81548160ff02191690831515021790555034801561002a57600080fd5b5060405160808061275b83398101806040528101908080519060200190929190805190602001909291908051906020019092919080519060200190929190505050336000806101000a81548173ffffffffffffffffffffffffffffffffffffffff021916908373ffffffffffffffffffffffffffffffffffffffff16021790555083600760006101000a81548173ffffffffffffffffffffffffffffffffffffffff021916908373ffffffffffffffffffffffffffffffffffffffff16021790555082600160006101000a81548173ffffffffffffffffffffffffffffffffffffffff021916908373ffffffffffffffffffffffffffffffffffffffff16021790555081600260006101000a81548173ffffffffffffffffffffffffffffffffffffffff021916908373ffffffffffffffffffffffffffffffffffffffff16021790555080600360006101000a81548173ffffffffffffffffffffffffffffffffffffffff021916908373ffffffffffffffffffffffffffffffffffffffff1602179055506000809054906101000a900473ffffffffffffffffffffffffffffffffffffffff16600460006101000a81548173ffffffffffffffffffffffffffffffffffffffff021916908373ffffffffffffffffffffffffffffffffffffffff16021790555050505050612537806102246000396000f300608060405260043610610128576000357c0100000000000000000000000000000000000000000000000000000000900463ffffffff1680630944018f1461012d5780633c96be54146101ce5780633d0327f4146102115780633f4ba83a1461026857806344d0afbc1461027f578063586b8e3b146102d65780635c975abb146103035780635ed5eb50146103325780636661a51e146103c5578063715018a61461040857806372475f2d1461041f5780637b1039991461044c5780638456cb59146104a35780638da5cb5b146104ba578063977d035114610511578063cef1200a14610554578063dbe3d34f146105a1578063e59727f2146105e4578063f2fde38b1461063b578063f926ebaf1461067e578063f978fd61146106bf578063fc0c546a14610708575b600080fd5b34801561013957600080fd5b506101cc600480360381019080803573ffffffffffffffffffffffffffffffffffffffff169060200190929190803590602001909291908035600019169060200190929190803590602001908201803590602001908080601f016020809104026020016040519081016040528093929190818152602001838380828437820191505050505050919291929050505061075f565b005b3480156101da57600080fd5b5061020f600480360381019080803573ffffffffffffffffffffffffffffffffffffffff169060200190929190505050610bf0565b005b34801561021d57600080fd5b50610226610db3565b604051808273ffffffffffffffffffffffffffffffffffffffff1673ffffffffffffffffffffffffffffffffffffffff16815260200191505060405180910390f35b34801561027457600080fd5b5061027d610dd9565b005b34801561028b57600080fd5b50610294610e97565b604051808273ffffffffffffffffffffffffffffffffffffffff1673ffffffffffffffffffffffffffffffffffffffff16815260200191505060405180910390f35b3480156102e257600080fd5b5061030160048036038101908080359060200190929190505050610ebd565b005b34801561030f57600080fd5b50610318610eca565b604051808215151515815260200191505060405180910390f35b34801561033e57600080fd5b506103c3600480360381019080803573ffffffffffffffffffffffffffffffffffffffff169060200190929190803573ffffffffffffffffffffffffffffffffffffffff169060200190929190803590602001909291908035600019169060200190929190803590602001908201803590602001919091929391929390505050610edd565b005b3480156103d157600080fd5b50610406600480360381019080803573ffffffffffffffffffffffffffffffffffffffff1690602001909291905050506114c8565b005b34801561041457600080fd5b5061041d61168b565b005b34801561042b57600080fd5b5061044a6004803603810190808035906020019092919050505061178d565b005b34801561045857600080fd5b5061046161179a565b604051808273ffffffffffffffffffffffffffffffffffffffff1673ffffffffffffffffffffffffffffffffffffffff16815260200191505060405180910390f35b3480156104af57600080fd5b506104b86117c0565b005b3480156104c657600080fd5b506104cf611880565b604051808273ffffffffffffffffffffffffffffffffffffffff1673ffffffffffffffffffffffffffffffffffffffff16815260200191505060405180910390f35b34801561051d57600080fd5b50610552600480360381019080803573ffffffffffffffffffffffffffffffffffffffff1690602001909291905050506118a5565b005b34801561056057600080fd5b5061059f600480360381019080803573ffffffffffffffffffffffffffffffffffffffff16906020019092919080359060200190929190505050611a68565b005b3480156105ad57600080fd5b506105e2600480360381019080803573ffffffffffffffffffffffffffffffffffffffff169060200190929190505050611ad2565b005b3480156105f057600080fd5b506105f9611c7a565b604051808273ffffffffffffffffffffffffffffffffffffffff1673ffffffffffffffffffffffffffffffffffffffff16815260200191505060405180910390f35b34801561064757600080fd5b5061067c600480360381019080803573ffffffffffffffffffffffffffffffffffffffff169060200190929190505050611ca0565b005b34801561068a57600080fd5b506106a960048036038101908080359060200190929190505050611d07565b6040518082815260200191505060405180910390f35b3480156106cb57600080fd5b506106ee6004803603810190808035600019169060200190929190505050611d1f565b604051808215151515815260200191505060405180910390f35b34801561071457600080fd5b5061071d611d3f565b604051808273ffffffffffffffffffffffffffffffffffffffff1673ffffffffffffffffffffffffffffffffffffffff16815260200191505060405180910390f35b6000600460009054906101000a900473ffffffffffffffffffffffffffffffffffffffff1673ffffffffffffffffffffffffffffffffffffffff163373ffffffffffffffffffffffffffffffffffffffff161415156107bd57600080fd5b60056000836040518082805190602001908083835b6020831015156107f757805182526020820191506020810190506020830392506107d2565b6001836020036101000a03801982511681845116808217855250505050505090500191505060405180910390206000191660001916815260200190815260200160002060009054906101000a900460ff161515156108bd576040517f08c379a00000000000000000000000000000000000000000000000000000000081526004018080602001828103825260148152602001807f5369676e6174757265206e6f7420756e6971756500000000000000000000000081525060200191505060405180910390fd5b600160056000846040518082805190602001908083835b6020831015156108f957805182526020820191506020810190506020830392506108d4565b6001836020036101000a03801982511681845116808217855250505050505090500191505060405180910390206000191660001916815260200190815260200160002060006101000a81548160ff021916908315150217905550600260009054906101000a900473ffffffffffffffffffffffffffffffffffffffff1673ffffffffffffffffffffffffffffffffffffffff1663e7cc8ded8686866040518463ffffffff167c0100000000000000000000000000000000000000000000000000000000028152600401808473ffffffffffffffffffffffffffffffffffffffff1673ffffffffffffffffffffffffffffffffffffffff16815260200183815260200182600019166000191681526020019350505050602060405180830381600087803b158015610a2857600080fd5b505af1158015610a3c573d6000803e3d6000fd5b505050506040513d6020811015610a5257600080fd5b81019080805190602001909291905050509050600260009054906101000a900473ffffffffffffffffffffffffffffffffffffffff1673ffffffffffffffffffffffffffffffffffffffff166397aba7f982846040518363ffffffff167c010000000000000000000000000000000000000000000000000000000002815260040180836000191660001916815260200180602001828103825283818151815260200191508051906020019080838360005b83811015610b1e578082015181840152602081019050610b03565b50505050905090810190601f168015610b4b5780820380516001836020036101000a031916815260200191505b509350505050602060405180830381600087803b158015610b6b57600080fd5b505af1158015610b7f573d6000803e3d6000fd5b505050506040513d6020811015610b9557600080fd5b810190808051906020019092919050505073ffffffffffffffffffffffffffffffffffffffff168573ffffffffffffffffffffffffffffffffffffffff16141515610bdf57600080fd5b610be98585611d65565b5050505050565b60008060009054906101000a900473ffffffffffffffffffffffffffffffffffffffff1673ffffffffffffffffffffffffffffffffffffffff163373ffffffffffffffffffffffffffffffffffffffff16141515610c4d57600080fd5b8160008173ffffffffffffffffffffffffffffffffffffffff1614151515610c7457600080fd5b600060149054906101000a900460ff161515610c8f57600080fd5b600360009054906101000a900473ffffffffffffffffffffffffffffffffffffffff16915082600360006101000a81548173ffffffffffffffffffffffffffffffffffffffff021916908373ffffffffffffffffffffffffffffffffffffffff1602179055507f2af55aac4712836d5a0b8a96df3be46cda09e7011355d56e7a1e2c7b72d736f382600360009054906101000a900473ffffffffffffffffffffffffffffffffffffffff16604051808373ffffffffffffffffffffffffffffffffffffffff1673ffffffffffffffffffffffffffffffffffffffff1681526020018273ffffffffffffffffffffffffffffffffffffffff1673ffffffffffffffffffffffffffffffffffffffff1681526020019250505060405180910390a1505050565b600360009054906101000a900473ffffffffffffffffffffffffffffffffffffffff1681565b6000809054906101000a900473ffffffffffffffffffffffffffffffffffffffff1673ffffffffffffffffffffffffffffffffffffffff163373ffffffffffffffffffffffffffffffffffffffff16141515610e3457600080fd5b600060149054906101000a900460ff161515610e4f57600080fd5b60008060146101000a81548160ff0219169083151502179055507f7805862f689e2f13df9f062ff482ad3ad112aca9e0847911ed832e158c525b3360405160405180910390a1565b600260009054906101000a900473ffffffffffffffffffffffffffffffffffffffff1681565b610ec73382611eda565b50565b600060149054906101000a900460ff1681565b6000806000600360009054906101000a900473ffffffffffffffffffffffffffffffffffffffff1673ffffffffffffffffffffffffffffffffffffffff163373ffffffffffffffffffffffffffffffffffffffff16141515610f3e57600080fd5b600060149054906101000a900460ff16151515610f5a57600080fd5b600160009054906101000a900473ffffffffffffffffffffffffffffffffffffffff1673ffffffffffffffffffffffffffffffffffffffff16631a5b70ad8a6040518263ffffffff167c0100000000000000000000000000000000000000000000000000000000028152600401808273ffffffffffffffffffffffffffffffffffffffff1673ffffffffffffffffffffffffffffffffffffffff168152602001915050602060405180830381600087803b15801561101757600080fd5b505af115801561102b573d6000803e3d6000fd5b505050506040513d602081101561104157600080fd5b810190808051906020019092919050505092506005600086866040518083838082843782019150509250505060405180910390206000191660001916815260200190815260200160002060009054906101000a900460ff1615151561110e576040517f08c379a00000000000000000000000000000000000000000000000000000000081526004018080602001828103825260148152602001807f5369676e6174757265206e6f7420756e6971756500000000000000000000000081525060200191505060405180910390fd5b60016005600087876040518083838082843782019150509250505060405180910390206000191660001916815260200190815260200160002060006101000a81548160ff021916908315150217905550600260009054906101000a900473ffffffffffffffffffffffffffffffffffffffff1673ffffffffffffffffffffffffffffffffffffffff1663dbbdad8c8a8a8a8a6040518563ffffffff167c0100000000000000000000000000000000000000000000000000000000028152600401808573ffffffffffffffffffffffffffffffffffffffff1673ffffffffffffffffffffffffffffffffffffffff1681526020018473ffffffffffffffffffffffffffffffffffffffff1673ffffffffffffffffffffffffffffffffffffffff1681526020018381526020018260001916600019168152602001945050505050602060405180830381600087803b15801561126757600080fd5b505af115801561127b573d6000803e3d6000fd5b505050506040513d602081101561129157600080fd5b81019080805190602001909291905050509150600260009054906101000a900473ffffffffffffffffffffffffffffffffffffffff1673ffffffffffffffffffffffffffffffffffffffff166397aba7f98387876040518463ffffffff167c01000000000000000000000000000000000000000000000000000000000281526004018084600019166000191681526020018060200182810382528484828181526020019250808284378201915050945050505050602060405180830381600087803b15801561135f57600080fd5b505af1158015611373573d6000803e3d6000fd5b505050506040513d602081101561138957600080fd5b810190808051906020019092919050505090508073ffffffffffffffffffffffffffffffffffffffff168973ffffffffffffffffffffffffffffffffffffffff1614151561143f576040517f08c379a000000000000000000000000000000000000000000000000000000000815260040180806020018281038252600e8152602001807f496e76616c6964207369676e657200000000000000000000000000000000000081525060200191505060405180910390fd5b61144a83898961208c565b7f57e2e5f504e215d7f5ee4ca734917b4ee7bd2e1d51d7e04447d6f5db3d1cac26838989604051808481526020018373ffffffffffffffffffffffffffffffffffffffff1673ffffffffffffffffffffffffffffffffffffffff168152602001828152602001935050505060405180910390a1505050505050505050565b60008060009054906101000a900473ffffffffffffffffffffffffffffffffffffffff1673ffffffffffffffffffffffffffffffffffffffff163373ffffffffffffffffffffffffffffffffffffffff1614151561152557600080fd5b8160008173ffffffffffffffffffffffffffffffffffffffff161415151561154c57600080fd5b600060149054906101000a900460ff16151561156757600080fd5b600160009054906101000a900473ffffffffffffffffffffffffffffffffffffffff16915082600160006101000a81548173ffffffffffffffffffffffffffffffffffffffff021916908373ffffffffffffffffffffffffffffffffffffffff1602179055507f68913200cecf41727f9b83c3ef808abc9b8a07e16a8ccb2fbb9fd9bcc7183f8282600160009054906101000a900473ffffffffffffffffffffffffffffffffffffffff16604051808373ffffffffffffffffffffffffffffffffffffffff1673ffffffffffffffffffffffffffffffffffffffff1681526020018273ffffffffffffffffffffffffffffffffffffffff1673ffffffffffffffffffffffffffffffffffffffff1681526020019250505060405180910390a1505050565b6000809054906101000a900473ffffffffffffffffffffffffffffffffffffffff1673ffffffffffffffffffffffffffffffffffffffff163373ffffffffffffffffffffffffffffffffffffffff161415156116e657600080fd5b6000809054906101000a900473ffffffffffffffffffffffffffffffffffffffff1673ffffffffffffffffffffffffffffffffffffffff167ff8df31144d9c2f0f6b59d69b8b98abd5459d07f2742c4df920b25aae33c6482060405160405180910390a260008060006101000a81548173ffffffffffffffffffffffffffffffffffffffff021916908373ffffffffffffffffffffffffffffffffffffffff160217905550565b6117973382611d65565b50565b600160009054906101000a900473ffffffffffffffffffffffffffffffffffffffff1681565b6000809054906101000a900473ffffffffffffffffffffffffffffffffffffffff1673ffffffffffffffffffffffffffffffffffffffff163373ffffffffffffffffffffffffffffffffffffffff1614151561181b57600080fd5b600060149054906101000a900460ff1615151561183757600080fd5b6001600060146101000a81548160ff0219169083151502179055507f6985a02210a168e66602d3235cb6db0e70f92b3ba4d376a33c0f3d9434bff62560405160405180910390a1565b6000809054906101000a900473ffffffffffffffffffffffffffffffffffffffff1681565b60008160008173ffffffffffffffffffffffffffffffffffffffff16141515156118ce57600080fd5b6000809054906101000a900473ffffffffffffffffffffffffffffffffffffffff1673ffffffffffffffffffffffffffffffffffffffff163373ffffffffffffffffffffffffffffffffffffffff1614151561192957600080fd5b600060149054906101000a900460ff16151561194457600080fd5b600260009054906101000a900473ffffffffffffffffffffffffffffffffffffffff16915082600260006101000a81548173ffffffffffffffffffffffffffffffffffffffff021916908373ffffffffffffffffffffffffffffffffffffffff1602179055507f9065f3654b16a9bdc012d8a568f9f881cbfc95ccce9c9ee0f648481bdca4f70582600260009054906101000a900473ffffffffffffffffffffffffffffffffffffffff16604051808373ffffffffffffffffffffffffffffffffffffffff1673ffffffffffffffffffffffffffffffffffffffff1681526020018273ffffffffffffffffffffffffffffffffffffffff1673ffffffffffffffffffffffffffffffffffffffff1681526020019250505060405180910390a1505050565b600460009054906101000a900473ffffffffffffffffffffffffffffffffffffffff1673ffffffffffffffffffffffffffffffffffffffff163373ffffffffffffffffffffffffffffffffffffffff16141515611ac457600080fd5b611ace8282611eda565b5050565b60008060009054906101000a900473ffffffffffffffffffffffffffffffffffffffff1673ffffffffffffffffffffffffffffffffffffffff163373ffffffffffffffffffffffffffffffffffffffff16141515611b2f57600080fd5b8160008173ffffffffffffffffffffffffffffffffffffffff1614151515611b5657600080fd5b600460009054906101000a900473ffffffffffffffffffffffffffffffffffffffff16915082600460006101000a81548173ffffffffffffffffffffffffffffffffffffffff021916908373ffffffffffffffffffffffffffffffffffffffff1602179055507f8c03ba60ae362d3259598ddf5be165b8fe5c5afa444407300fb069e4357d2bd182600460009054906101000a900473ffffffffffffffffffffffffffffffffffffffff16604051808373ffffffffffffffffffffffffffffffffffffffff1673ffffffffffffffffffffffffffffffffffffffff1681526020018273ffffffffffffffffffffffffffffffffffffffff1673ffffffffffffffffffffffffffffffffffffffff1681526020019250505060405180910390a1505050565b600460009054906101000a900473ffffffffffffffffffffffffffffffffffffffff1681565b6000809054906101000a900473ffffffffffffffffffffffffffffffffffffffff1673ffffffffffffffffffffffffffffffffffffffff163373ffffffffffffffffffffffffffffffffffffffff16141515611cfb57600080fd5b611d04816120e8565b50565b60066020528060005260406000206000915090505481565b60056020528060005260406000206000915054906101000a900460ff1681565b600760009054906101000a900473ffffffffffffffffffffffffffffffffffffffff1681565b60008060149054906101000a900460ff16151515611d8257600080fd5b600160009054906101000a900473ffffffffffffffffffffffffffffffffffffffff1673ffffffffffffffffffffffffffffffffffffffff16631a5b70ad846040518263ffffffff167c0100000000000000000000000000000000000000000000000000000000028152600401808273ffffffffffffffffffffffffffffffffffffffff1673ffffffffffffffffffffffffffffffffffffffff168152602001915050602060405180830381600087803b158015611e3f57600080fd5b505af1158015611e53573d6000803e3d6000fd5b505050506040513d6020811015611e6957600080fd5b81019080805190602001909291905050509050611ecb833084600760009054906101000a900473ffffffffffffffffffffffffffffffffffffffff1673ffffffffffffffffffffffffffffffffffffffff166121e2909392919063ffffffff16565b611ed58183612305565b505050565b60008060149054906101000a900460ff16151515611ef757600080fd5b600160009054906101000a900473ffffffffffffffffffffffffffffffffffffffff1673ffffffffffffffffffffffffffffffffffffffff16631a5b70ad846040518263ffffffff167c0100000000000000000000000000000000000000000000000000000000028152600401808273ffffffffffffffffffffffffffffffffffffffff1673ffffffffffffffffffffffffffffffffffffffff168152602001915050602060405180830381600087803b158015611fb457600080fd5b505af1158015611fc8573d6000803e3d6000fd5b505050506040513d6020811015611fde57600080fd5b81019080805190602001909291905050509050611ffb8183612385565b6120488383600760009054906101000a900473ffffffffffffffffffffffffffffffffffffffff1673ffffffffffffffffffffffffffffffffffffffff166123e89092919063ffffffff16565b7f304360d64461156d860f77a6fe21dc275a591085df929929b52341bb1524263a8183604051808381526020018281526020019250505060405180910390a1505050565b6120968382612385565b6120e38282600760009054906101000a900473ffffffffffffffffffffffffffffffffffffffff1673ffffffffffffffffffffffffffffffffffffffff166123e89092919063ffffffff16565b505050565b600073ffffffffffffffffffffffffffffffffffffffff168173ffffffffffffffffffffffffffffffffffffffff161415151561212457600080fd5b8073ffffffffffffffffffffffffffffffffffffffff166000809054906101000a900473ffffffffffffffffffffffffffffffffffffffff1673ffffffffffffffffffffffffffffffffffffffff167f8be0079c531659141344cd1fd0a4f28419497f9722a3daafe3b4186f6b6457e060405160405180910390a3806000806101000a81548173ffffffffffffffffffffffffffffffffffffffff021916908373ffffffffffffffffffffffffffffffffffffffff16021790555050565b8373ffffffffffffffffffffffffffffffffffffffff166323b872dd8484846040518463ffffffff167c0100000000000000000000000000000000000000000000000000000000028152600401808473ffffffffffffffffffffffffffffffffffffffff1673ffffffffffffffffffffffffffffffffffffffff1681526020018373ffffffffffffffffffffffffffffffffffffffff1673ffffffffffffffffffffffffffffffffffffffff1681526020018281526020019350505050602060405180830381600087803b1580156122b957600080fd5b505af11580156122cd573d6000803e3d6000fd5b505050506040513d60208110156122e357600080fd5b810190808051906020019092919050505015156122ff57600080fd5b50505050565b61232b8160066000858152602001908152602001600020546124d690919063ffffffff16565b60066000848152602001908152602001600020819055507fad62bfcc9615fe4a5586870005830f1c6b06155496f6ef7f9e0363f077839e008282604051808381526020018281526020019250505060405180910390a15050565b806006600084815260200190815260200160002054101515156123a757600080fd5b6123cd8160066000858152602001908152602001600020546124f290919063ffffffff16565b60066000848152602001908152602001600020819055505050565b8273ffffffffffffffffffffffffffffffffffffffff1663a9059cbb83836040518363ffffffff167c0100000000000000000000000000000000000000000000000000000000028152600401808373ffffffffffffffffffffffffffffffffffffffff1673ffffffffffffffffffffffffffffffffffffffff16815260200182815260200192505050602060405180830381600087803b15801561248b57600080fd5b505af115801561249f573d6000803e3d6000fd5b505050506040513d60208110156124b557600080fd5b810190808051906020019092919050505015156124d157600080fd5b505050565b600081830190508281101515156124e957fe5b80905092915050565b600082821115151561250057fe5b8183039050929150505600a165627a7a723058200b3ebb9eab535efa27ca6d8f7f8b20c471cc7194fd5c3a5ad4ac403a2dd926850029",
  "source": "pragma solidity 0.4.24;\n\nimport \"./AccountRegistryInterface.sol\";\n\nimport \"openzeppelin-solidity/contracts/ownership/Ownable.sol\";\nimport \"openzeppelin-solidity/contracts/lifecycle/Pausable.sol\";\nimport \"openzeppelin-solidity/contracts/token/ERC20/SafeERC20.sol\";\nimport \"openzeppelin-solidity/contracts/token/ERC20/ERC20.sol\";\nimport \"openzeppelin-solidity/contracts/math/SafeMath.sol\";\nimport \"./SigningLogicInterface.sol\";\n\n/**\n * @notice TokenEscrowMarketplace is an ERC20 payment channel that enables users to send BLT by exchanging signatures off-chain\n *  Users approve the contract address to transfer BLT on their behalf using the standard ERC20.approve function\n *  After approval, either the user or the contract admin initiates the transfer of BLT into the contract\n *  Once in the contract, users can send payments via a signed message to another user. \n *  The signature transfers BLT from lockup to the recipient's balance\n *  Users can withdraw funds at any time. Or the admin can release them on the user's behalf\n *  \n *  BLT is stored in the contract by accountId. The accountIds are managed by Bloom's AccountRegistry contract\n *  \n *  Only the AttestationLogic contract is authorized to release funds once a jobs is complete\n */\ncontract TokenEscrowMarketplace is Ownable, Pausable{\n  using SafeERC20 for ERC20;\n  using SafeMath for uint256;\n\n  AccountRegistryInterface public registry;\n  SigningLogicInterface public signingLogic;\n  address public attestationLogic;\n  address public marketplaceAdmin;\n\n  // Mapping of hashed signatures to bool. Sigs can only be used once\n  mapping (bytes32 => bool) public usedSignatures;\n\n  mapping(uint256 => uint256) public tokenEscrow;\n  ERC20 public token;\n\n  event TokenMarketplaceWithdrawal(uint256 subject, uint256 amount);\n  event TokenMarketplaceEscrowPayment(uint256 escrowPayer, address escrowPayee, uint256 amount);\n  event TokenMarketplaceDeposit(uint256 escrowPayer, uint256 amount);\n  event SigningLogicChanged(address oldSigningLogic, address newSigningLogic);\n  event AttestationLogicChanged(address oldAttestationLogic, address newAttestationLogic);\n  event AccountRegistryChanged(address oldRegistry, address newRegistry);\n  event MarketplaceAdminChanged(address oldMarketplaceAdmin, address newMarketplaceAdmin);\n\n  /**\n   * @notice The TokenEscrowMarketplace constructor initializes the interfaces to the other contracts\n   * @dev Some actions are restricted to be performed by the attestationLogic contract.\n   *  Signing logic is upgradeable in case the signTypedData spec changes\n   *  AccountRegistry and Token are not modifiable because it could lead to lost funds\n   * @param _token Address of BLT\n   * @param _registry Address of AccountRegistry\n   * @param _signingLogic Address of SigningLogic\n   * @param _attestationLogic Address of current attestation logic contract\n   */\n  constructor(\n    ERC20 _token,\n    AccountRegistryInterface _registry,\n    SigningLogicInterface _signingLogic,\n    address _attestationLogic\n    ) public {\n    token = _token;\n    registry = _registry;\n    signingLogic = _signingLogic;\n    attestationLogic = _attestationLogic;\n    marketplaceAdmin = owner;\n  }\n\n  /**\n   * @notice Change the marketplace admin\n   * @dev Restricted to owner and new address cannot be 0x0\n   * @param _newMarketplaceAdmin Address of new marketplace admin\n   */\n  function setMarketplaceAdmin(address _newMarketplaceAdmin) external onlyOwner nonZero(_newMarketplaceAdmin) {\n    address oldMarketplaceAdmin = marketplaceAdmin;\n    marketplaceAdmin = _newMarketplaceAdmin;\n    emit MarketplaceAdminChanged(oldMarketplaceAdmin, marketplaceAdmin);\n  }\n\n  /**\n   * @notice Change the implementation of the SigningLogic contract by setting a new address\n   * @dev Restricted to owner and new implementation address cannot be 0x0\n   * @param _newSigningLogic Address of new SigningLogic implementation\n   */\n  function setSigningLogic(SigningLogicInterface _newSigningLogic) \n    external nonZero(_newSigningLogic) onlyOwner whenPaused {\n    address oldSigningLogic = signingLogic;\n    signingLogic = _newSigningLogic;\n    emit SigningLogicChanged(oldSigningLogic, signingLogic);\n  }\n\n  /**\n   * @notice Change the address of Attestion Logic which has write control over attestations\n   * @dev Restricted to owner and new address cannot be 0x0\n   * @param _newAttestationLogic Address of new Attestation Logic contract\n   */\n  function setAttestationLogic(address _newAttestationLogic)\n    external onlyOwner nonZero(_newAttestationLogic) whenPaused {\n    address oldAttestationLogic = attestationLogic;\n    attestationLogic = _newAttestationLogic;\n    emit AttestationLogicChanged(oldAttestationLogic, attestationLogic);\n  }\n\n  /**\n   * @notice Change the address of AccountRegistry in case something really bad happens\n   * @dev Restricted to owner and new address cannot be 0x0\n   * @param _newRegistry Address of new Account Registry contract\n   */\n  function setAccountRegistry(AccountRegistryInterface _newRegistry) \n    external onlyOwner nonZero(_newRegistry) whenPaused {\n    address oldRegistry = registry;\n    registry = _newRegistry;\n    emit AccountRegistryChanged(oldRegistry, registry);\n  }\n\n  /**\n   * @dev Zero address not allowed\n   */\n  modifier nonZero(address _address) {\n    require(_address != 0);\n    _;\n  }\n\n  modifier onlyAttestationLogic() {\n    require(msg.sender == attestationLogic);\n    _;\n  }\n\n  modifier onlyMarketplaceAdmin() {\n    require(msg.sender == marketplaceAdmin);\n    _;\n  }\n\n  /**\n   * @notice Lockup tokens for set time period on behalf of user. Must be preceeded by approve\n   * @dev Authorized by a signTypedData signature by sender\n   *  Sigs can only be used once. They contain a unique nonce\n   *  So an action can be repeated, with a different signature\n   * @param _sender User locking up their tokens\n   * @param _amount Tokens to lock up\n   * @param _nonce Unique Id so signatures can't be replayed\n   * @param _delegationSig Signed hash of these input parameters so admin can submit this on behalf of a user\n   */\n  function moveTokensToEscrowLockupFor(\n    address _sender,\n    uint256 _amount,\n    bytes32 _nonce,\n    bytes _delegationSig\n    ) public onlyMarketplaceAdmin {\n    require(!usedSignatures[keccak256(_delegationSig)], \"Signature not unique\");\n    usedSignatures[keccak256(_delegationSig)] = true;\n    bytes32 _delegationDigest = signingLogic.generateLockupTokensDelegationSchemaHash(\n      _sender,\n      _amount,\n      _nonce\n    );\n    require(_sender == signingLogic.recoverSigner(_delegationDigest, _delegationSig));\n    moveTokensToEscrowLockupForUser(_sender, _amount);\n  }\n\n  /**\n   * @notice Lockup tokens by user. Must be preceeded by approve\n   * @param _amount Tokens to lock up\n   */\n  function moveTokensToEscrowLockup(uint256 _amount) public {\n    moveTokensToEscrowLockupForUser(msg.sender, _amount);\n  }\n\n  /**\n   * @notice Lockup tokens for set time. Must be preceeded by approve\n   * @dev Private function called by appropriate public function\n   * @param _sender User locking up their tokens\n   * @param _amount Tokens to lock up\n   */\n  function moveTokensToEscrowLockupForUser(\n    address _sender,\n    uint256 _amount\n    ) private whenNotPaused {\n    uint256 _payerId = registry.accountIdForAddress(_sender);\n    token.safeTransferFrom(_sender, this, _amount);\n    addToEscrow(_payerId, _amount);\n  }\n\n  /**\n   * @notice Release tokens back to payer's available balance if lockup expires\n   * @dev Token balance retreived by accountId. Can be different address from the one that deposited tokens\n   * @param _amount Tokens to retreive from escrow\n   */\n  function releaseTokensFromEscrow(uint256 _amount) public {\n    releaseTokensFromEscrowForUser(msg.sender, _amount);\n  }\n\n  /**\n   * @notice Release tokens back to payer's available balance if lockup expires\n   * @dev Token balance retreived by accountId. Can be different address from the one that deposited tokens\n   * @param _payer User retreiving tokens from escrow\n   * @param _amount Tokens to retreive from escrow\n   */\n  function releaseTokensFromEscrowFor(address _payer, uint256 _amount) public onlyMarketplaceAdmin{\n    releaseTokensFromEscrowForUser(_payer, _amount);\n  }\n\n  /**\n   * @notice Release tokens back to payer's available balance if lockup expires\n   * @dev Token balance retreived by accountId. Can be different address from the one that deposited tokens\n   * @param _payer User retreiving tokens from escrow\n   * @param _amount Tokens to retreive from escrow\n   */\n  function releaseTokensFromEscrowForUser(\n    address _payer,\n    uint256 _amount\n    ) private whenNotPaused {\n    uint256 _payerId = registry.accountIdForAddress(_payer);\n    subFromEscrow(_payerId, _amount);\n    token.safeTransfer(_payer, _amount);\n    emit TokenMarketplaceWithdrawal(_payerId, _amount);\n  }\n\n  /**\n   * @notice Pay from escrow of payer to available balance of receiever\n   * @dev Private function to modify balances on payment\n   * @param _payerId User with tokens in escrow\n   * @param _receiver User receiving tokens\n   * @param _amount Tokens being sent\n   */\n  function payTokensFromEscrow(uint256 _payerId, address _receiver, uint256 _amount) private {\n    subFromEscrow(_payerId, _amount);\n    token.safeTransfer(_receiver, _amount);\n  }\n\n  /**\n   * @notice Release tokens to receiver from payer's escrow given a valid signature\n   * @dev Execution restricted to attestationLogic contract\n   * @param _payer User paying tokens from escrow\n   * @param _receiver User receiving payment\n   * @param _amount Tokens being paid\n   * @param _nonce Unique Id for sig to make it one-time-use\n   * @param _releaseSig Signed parameters by payer authorizing payment\n   */\n  function requestTokenPayment(\n    address _payer,\n    address _receiver,\n    uint256 _amount,\n    bytes32 _nonce,\n    bytes _releaseSig\n    ) external onlyAttestationLogic whenNotPaused {\n    uint256 _payerId = registry.accountIdForAddress(_payer);\n\n    require(!usedSignatures[keccak256(_releaseSig)], \"Signature not unique\");\n    usedSignatures[keccak256(_releaseSig)] = true;\n\n    bytes32 _digest = signingLogic.generateReleaseTokensSchemaHash(\n      _payer,\n      _receiver,\n      _amount,\n      _nonce\n    );\n    address signer = signingLogic.recoverSigner(_digest, _releaseSig);\n    require(_payer == signer, \"Invalid signer\");\n\n    payTokensFromEscrow(_payerId, _receiver, _amount);\n    emit TokenMarketplaceEscrowPayment(_payerId, _receiver, _amount);\n  }\n\n  /**\n   * @notice Helper function to add to escrow balance and set releaseDate\n   * @dev Must be later than current release date\n   * @param _from Account Id for escrow mapping\n   * @param _amount Tokens to lock up\n   */\n  function addToEscrow(uint256 _from, uint256 _amount) private {\n    tokenEscrow[_from] = tokenEscrow[_from].add(_amount);\n    emit TokenMarketplaceDeposit(_from, _amount);\n  }\n\n  /**\n   * Helper function to reduce escrow token balance of user\n   */\n  function subFromEscrow(uint256 _from, uint256 _amount) private {\n    require(tokenEscrow[_from] >= _amount);\n    tokenEscrow[_from] = tokenEscrow[_from].sub(_amount);\n  }\n}\n",
  "sourcePath": "/Users/isaacpatka/Bloom/bloom-web/contracts/TokenEscrowMarketplace.sol",
  "compiler": {
    "name": "solc",
    "version": "0.4.24+commit.e67f0147.Emscripten.clang"
  },
  "schemaVersion": "2.0.1",
  "updatedAt": "2018-07-27T01:29:17.249Z"
}