{
  "contractName": "TokenEscrowMarketplace",
  "abi": [
    {
      "constant": true,
      "inputs": [],
      "name": "attestationLogic",
      "outputs": [
        {
          "name": "",
          "type": "address"
        }
      ],
      "payable": false,
      "stateMutability": "view",
      "type": "function"
    },
    {
      "constant": true,
      "inputs": [
        {
          "name": "",
          "type": "address"
        }
      ],
      "name": "tokenEscrow",
      "outputs": [
        {
          "name": "",
          "type": "uint256"
        }
      ],
      "payable": false,
      "stateMutability": "view",
      "type": "function"
    },
    {
      "constant": true,
      "inputs": [
        {
          "name": "",
          "type": "bytes32"
        }
      ],
      "name": "usedSignatures",
      "outputs": [
        {
          "name": "",
          "type": "bool"
        }
      ],
      "payable": false,
      "stateMutability": "view",
      "type": "function"
    },
    {
      "constant": true,
      "inputs": [],
      "name": "token",
      "outputs": [
        {
          "name": "",
          "type": "address"
        }
      ],
      "payable": false,
      "stateMutability": "view",
      "type": "function"
    },
    {
      "inputs": [
        {
          "name": "_token",
          "type": "address"
        },
        {
          "name": "_attestationLogic",
          "type": "address"
        }
      ],
      "payable": false,
      "stateMutability": "nonpayable",
      "type": "constructor"
    },
    {
      "anonymous": false,
      "inputs": [
        {
          "indexed": false,
          "name": "escrowPayer",
          "type": "address"
        },
        {
          "indexed": false,
          "name": "amount",
          "type": "uint256"
        }
      ],
      "name": "TokenMarketplaceWithdrawal",
      "type": "event"
    },
    {
      "anonymous": false,
      "inputs": [
        {
          "indexed": false,
          "name": "escrowPayer",
          "type": "address"
        },
        {
          "indexed": false,
          "name": "escrowPayee",
          "type": "address"
        },
        {
          "indexed": false,
          "name": "amount",
          "type": "uint256"
        }
      ],
      "name": "TokenMarketplaceEscrowPayment",
      "type": "event"
    },
    {
      "anonymous": false,
      "inputs": [
        {
          "indexed": false,
          "name": "escrowPayer",
          "type": "address"
        },
        {
          "indexed": false,
          "name": "amount",
          "type": "uint256"
        }
      ],
      "name": "TokenMarketplaceDeposit",
      "type": "event"
    },
    {
      "constant": false,
      "inputs": [
        {
          "name": "_sender",
          "type": "address"
        },
        {
          "name": "_amount",
          "type": "uint256"
        },
        {
          "name": "_nonce",
          "type": "bytes32"
        },
        {
          "name": "_delegationSig",
          "type": "bytes"
        }
      ],
      "name": "moveTokensToEscrowLockupFor",
      "outputs": [],
      "payable": false,
      "stateMutability": "nonpayable",
      "type": "function"
    },
    {
      "constant": false,
      "inputs": [
        {
          "name": "_amount",
          "type": "uint256"
        }
      ],
      "name": "moveTokensToEscrowLockup",
      "outputs": [],
      "payable": false,
      "stateMutability": "nonpayable",
      "type": "function"
    },
    {
      "constant": false,
      "inputs": [
        {
          "name": "_sender",
          "type": "address"
        },
        {
          "name": "_amount",
          "type": "uint256"
        },
        {
          "name": "_nonce",
          "type": "bytes32"
        },
        {
          "name": "_delegationSig",
          "type": "bytes"
        }
      ],
      "name": "releaseTokensFromEscrowFor",
      "outputs": [],
      "payable": false,
      "stateMutability": "nonpayable",
      "type": "function"
    },
    {
      "constant": false,
      "inputs": [
        {
          "name": "_amount",
          "type": "uint256"
        }
      ],
      "name": "releaseTokensFromEscrow",
      "outputs": [],
      "payable": false,
      "stateMutability": "nonpayable",
      "type": "function"
    },
    {
      "constant": false,
      "inputs": [
        {
          "name": "_payer",
          "type": "address"
        },
        {
          "name": "_receiver",
          "type": "address"
        },
        {
          "name": "_amount",
          "type": "uint256"
        },
        {
          "name": "_nonce",
          "type": "bytes32"
        },
        {
          "name": "_paymentSig",
          "type": "bytes"
        }
      ],
      "name": "requestTokenPayment",
      "outputs": [],
      "payable": false,
      "stateMutability": "nonpayable",
      "type": "function"
    }
  ],
  "bytecode": "0x60806040523480156200001157600080fd5b5060405160408062001ce183398101806040528101908080519060200190929190805190602001909291905050506040805190810160405280601e81526020017f426c6f6f6d20546f6b656e20457363726f77204d61726b6574706c61636500008152506040805190810160405280600181526020017f32000000000000000000000000000000000000000000000000000000000000008152506001620000fe6080604051908101604052808581526020018481526020018381526020013073ffffffffffffffffffffffffffffffffffffffff1681525062000195640100000000026401000000009004565b6001816000191690555050505081600460006101000a81548173ffffffffffffffffffffffffffffffffffffffff021916908373ffffffffffffffffffffffffffffffffffffffff16021790555080600260006101000a81548173ffffffffffffffffffffffffffffffffffffffff021916908373ffffffffffffffffffffffffffffffffffffffff1602179055505050620003df565b600060405180807f454950373132446f6d61696e28737472696e67206e616d652c737472696e672081526020017f76657273696f6e2c75696e7432353620636861696e49642c616464726573732081526020017f766572696679696e67436f6e74726163742900000000000000000000000000008152506052019050604051809103902082600001516040518082805190602001908083835b6020831015156200025557805182526020820191506020810190506020830392506200022e565b6001836020036101000a038019825116818451168082178552505050505050905001915050604051809103902083602001516040518082805190602001908083835b602083101515620002be578051825260208201915060208101905060208303925062000297565b6001836020036101000a038019825116818451168082178552505050505050905001915050604051809103902084604001518560600151604051602001808660001916600019168152602001856000191660001916815260200184600019166000191681526020018381526020018273ffffffffffffffffffffffffffffffffffffffff1673ffffffffffffffffffffffffffffffffffffffff168152602001955050505050506040516020818303038152906040526040518082805190602001908083835b602083101515620003ab578051825260208201915060208101905060208303925062000384565b6001836020036101000a03801982511681845116808217855250505050505090500191505060405180910390209050919050565b6118f280620003ef6000396000f300608060405260043610610099576000357c0100000000000000000000000000000000000000000000000000000000900463ffffffff1680630944018f1461009e5780633d0327f41461011157806349df8a4614610168578063586b8e3b146101bf5780635ed5eb50146101ec57806372475f2d1461027f578063cba5edf8146102ac578063f978fd611461031f578063fc0c546a14610368575b600080fd5b3480156100aa57600080fd5b5061010f600480360381019080803573ffffffffffffffffffffffffffffffffffffffff1690602001909291908035906020019092919080356000191690602001909291908035906020019082018035906020019190919293919293905050506103bf565b005b34801561011d57600080fd5b5061012661040e565b604051808273ffffffffffffffffffffffffffffffffffffffff1673ffffffffffffffffffffffffffffffffffffffff16815260200191505060405180910390f35b34801561017457600080fd5b506101a9600480360381019080803573ffffffffffffffffffffffffffffffffffffffff169060200190929190505050610434565b6040518082815260200191505060405180910390f35b3480156101cb57600080fd5b506101ea6004803603810190808035906020019092919050505061044c565b005b3480156101f857600080fd5b5061027d600480360381019080803573ffffffffffffffffffffffffffffffffffffffff169060200190929190803573ffffffffffffffffffffffffffffffffffffffff169060200190929190803590602001909291908035600019169060200190929190803590602001908201803590602001919091929391929390505050610459565b005b34801561028b57600080fd5b506102aa600480360381019080803590602001909291905050506105a6565b005b3480156102b857600080fd5b5061031d600480360381019080803573ffffffffffffffffffffffffffffffffffffffff1690602001909291908035906020019092919080356000191690602001909291908035906020019082018035906020019190919293919293905050506105b3565b005b34801561032b57600080fd5b5061034e6004803603810190808035600019169060200190929190505050610602565b604051808215151515815260200191505060405180910390f35b34801561037457600080fd5b5061037d610622565b604051808273ffffffffffffffffffffffffffffffffffffffff1673ffffffffffffffffffffffffffffffffffffffff16815260200191505060405180910390f35b6103fd85858585858080601f016020809104026020016040519081016040528093929190818152602001838380828437820191505050505050610648565b6104078585610714565b5050505050565b600260009054906101000a900473ffffffffffffffffffffffffffffffffffffffff1681565b60036020528060005260406000206000915090505481565b6104563382610771565b50565b600260009054906101000a900473ffffffffffffffffffffffffffffffffffffffff1673ffffffffffffffffffffffffffffffffffffffff163373ffffffffffffffffffffffffffffffffffffffff161415156104b557600080fd5b6104f48686868686868080601f016020809104026020016040519081016040528093929190818152602001838380828437820191505050505050610837565b6104ff868686610905565b7fe7d9dd378b7eaab790021318bf0b7316cc12bd7132735ff85ba74f7af1b2d4b7868686604051808473ffffffffffffffffffffffffffffffffffffffff1673ffffffffffffffffffffffffffffffffffffffff1681526020018373ffffffffffffffffffffffffffffffffffffffff1673ffffffffffffffffffffffffffffffffffffffff168152602001828152602001935050505060405180910390a1505050505050565b6105b03382610714565b50565b6105f185858585858080601f016020809104026020016040519081016040528093929190818152602001838380828437820191505050505050610961565b6105fb8585610771565b5050505050565b60006020528060005260406000206000915054906101000a900460ff1681565b600460009054906101000a900473ffffffffffffffffffffffffffffffffffffffff1681565b6000610655858585610a2d565b90506106618183610b39565b73ffffffffffffffffffffffffffffffffffffffff168573ffffffffffffffffffffffffffffffffffffffff16141515610703576040517f08c379a000000000000000000000000000000000000000000000000000000000815260040180806020018281038252601e8152602001807f496e76616c6964204c6f636b7570546f6b656e73205369676e6174757265000081525060200191505060405180910390fd5b61070d8186610c9f565b5050505050565b610763823083600460009054906101000a900473ffffffffffffffffffffffffffffffffffffffff1673ffffffffffffffffffffffffffffffffffffffff16610e36909392919063ffffffff16565b61076d8282610f56565b5050565b61077b828261105a565b6107c88282600460009054906101000a900473ffffffffffffffffffffffffffffffffffffffff1673ffffffffffffffffffffffffffffffffffffffff166111419092919063ffffffff16565b7fb968745fb52db01651388c45b9c808b649af161403513ab512197f238f99e4948282604051808373ffffffffffffffffffffffffffffffffffffffff1673ffffffffffffffffffffffffffffffffffffffff1681526020018281526020019250505060405180910390a15050565b60006108458686868661122c565b90506108518183610b39565b73ffffffffffffffffffffffffffffffffffffffff168673ffffffffffffffffffffffffffffffffffffffff161415156108f3576040517f08c379a00000000000000000000000000000000000000000000000000000000081526004018080602001828103825260198152602001807f496e76616c6964205061796d656e74205369676e61747572650000000000000081525060200191505060405180910390fd5b6108fd8187610c9f565b505050505050565b61090f838261105a565b61095c8282600460009054906101000a900473ffffffffffffffffffffffffffffffffffffffff1673ffffffffffffffffffffffffffffffffffffffff166111419092919063ffffffff16565b505050565b600061096e858585611355565b905061097a8183610b39565b73ffffffffffffffffffffffffffffffffffffffff168573ffffffffffffffffffffffffffffffffffffffff16141515610a1c576040517f08c379a000000000000000000000000000000000000000000000000000000000815260040180806020018281038252601f8152602001807f496e76616c69642052656c65617365546f6b656e73205369676e61747572650081525060200191505060405180910390fd5b610a268186610c9f565b5050505050565b6000600154610a706060604051908101604052808773ffffffffffffffffffffffffffffffffffffffff1681526020018681526020018560001916815250611461565b60405160200180807f190100000000000000000000000000000000000000000000000000000000000081525060020183600019166000191681526020018260001916600019168152602001925050506040516020818303038152906040526040518082805190602001908083835b602083101515610b035780518252602082019150602081019050602083039250610ade565b6001836020036101000a038019825116818451168082178552505050505050905001915050604051809103902090509392505050565b60008073__ECRecovery____________________________6319045a2585856040518363ffffffff167c010000000000000000000000000000000000000000000000000000000002815260040180836000191660001916815260200180602001828103825283818151815260200191508051906020019080838360005b83811015610bd1578082015181840152602081019050610bb6565b50505050905090810190601f168015610bfe5780820380516001836020036101000a031916815260200191505b50935050505060206040518083038186803b158015610c1c57600080fd5b505af4158015610c30573d6000803e3d6000fd5b505050506040513d6020811015610c4657600080fd5b81019080805190602001909291905050509050600073ffffffffffffffffffffffffffffffffffffffff168173ffffffffffffffffffffffffffffffffffffffff1614151515610c9557600080fd5b8091505092915050565b600082826040516020018083600019166000191681526020018273ffffffffffffffffffffffffffffffffffffffff1673ffffffffffffffffffffffffffffffffffffffff168152602001925050506040516020818303038152906040526040518082805190602001908083835b602083101515610d325780518252602082019150602081019050602083039250610d0d565b6001836020036101000a03801982511681845116808217855250505050505090500191505060405180910390209050600080826000191660001916815260200190815260200160002060009054906101000a900460ff16151515610dfe576040517f08c379a00000000000000000000000000000000000000000000000000000000081526004018080602001828103825260148152602001807f5369676e6174757265206e6f7420756e6971756500000000000000000000000081525060200191505060405180910390fd5b6001600080836000191660001916815260200190815260200160002060006101000a81548160ff021916908315150217905550505050565b8373ffffffffffffffffffffffffffffffffffffffff166323b872dd8484846040518463ffffffff167c0100000000000000000000000000000000000000000000000000000000028152600401808473ffffffffffffffffffffffffffffffffffffffff1673ffffffffffffffffffffffffffffffffffffffff1681526020018373ffffffffffffffffffffffffffffffffffffffff1673ffffffffffffffffffffffffffffffffffffffff1681526020018281526020019350505050602060405180830381600087803b158015610f0d57600080fd5b505af1158015610f21573d6000803e3d6000fd5b505050506040513d6020811015610f3757600080fd5b81019080805190602001909291905050501515610f5057fe5b50505050565b610fa881600360008573ffffffffffffffffffffffffffffffffffffffff1673ffffffffffffffffffffffffffffffffffffffff168152602001908152602001600020546115a790919063ffffffff16565b600360008473ffffffffffffffffffffffffffffffffffffffff1673ffffffffffffffffffffffffffffffffffffffff168152602001908152602001600020819055507f8e78329e3d20b4aeba22ca5ba98e8e27309fc5cbad16b93640982a444202bd0d8282604051808373ffffffffffffffffffffffffffffffffffffffff1673ffffffffffffffffffffffffffffffffffffffff1681526020018281526020019250505060405180910390a15050565b80600360008473ffffffffffffffffffffffffffffffffffffffff1673ffffffffffffffffffffffffffffffffffffffff16815260200190815260200160002054101515156110a857600080fd5b6110fa81600360008573ffffffffffffffffffffffffffffffffffffffff1673ffffffffffffffffffffffffffffffffffffffff168152602001908152602001600020546115c390919063ffffffff16565b600360008473ffffffffffffffffffffffffffffffffffffffff1673ffffffffffffffffffffffffffffffffffffffff168152602001908152602001600020819055505050565b8273ffffffffffffffffffffffffffffffffffffffff1663a9059cbb83836040518363ffffffff167c0100000000000000000000000000000000000000000000000000000000028152600401808373ffffffffffffffffffffffffffffffffffffffff1673ffffffffffffffffffffffffffffffffffffffff16815260200182815260200192505050602060405180830381600087803b1580156111e457600080fd5b505af11580156111f8573d6000803e3d6000fd5b505050506040513d602081101561120e57600080fd5b8101908080519060200190929190505050151561122757fe5b505050565b600060015461128b6080604051908101604052808873ffffffffffffffffffffffffffffffffffffffff1681526020018773ffffffffffffffffffffffffffffffffffffffff16815260200186815260200185600019168152506115dc565b60405160200180807f190100000000000000000000000000000000000000000000000000000000000081525060020183600019166000191681526020018260001916600019168152602001925050506040516020818303038152906040526040518082805190602001908083835b60208310151561131e57805182526020820191506020810190506020830392506112f9565b6001836020036101000a03801982511681845116808217855250505050505090500191505060405180910390209050949350505050565b60006001546113986060604051908101604052808773ffffffffffffffffffffffffffffffffffffffff1681526020018681526020018560001916815250611780565b60405160200180807f190100000000000000000000000000000000000000000000000000000000000081525060020183600019166000191681526020018260001916600019168152602001925050506040516020818303038152906040526040518082805190602001908083835b60208310151561142b5780518252602082019150602081019050602083039250611406565b6001836020036101000a038019825116818451168082178552505050505050905001915050604051809103902090509392505050565b600060405180807f4c6f636b7570546f6b656e73466f7228616464726573732073656e6465722c7581526020017f696e7432353620616d6f756e742c62797465733332206e6f6e63652900000000815250603c01905060405180910390208260000151836020015184604001516040516020018085600019166000191681526020018473ffffffffffffffffffffffffffffffffffffffff1673ffffffffffffffffffffffffffffffffffffffff16815260200183815260200182600019166000191681526020019450505050506040516020818303038152906040526040518082805190602001908083835b602083101515611573578051825260208201915060208101905060208303925061154e565b6001836020036101000a03801982511681845116808217855250505050505090500191505060405180910390209050919050565b600081830190508281101515156115ba57fe5b80905092915050565b60008282111515156115d157fe5b818303905092915050565b600060405180807f506179546f6b656e7328616464726573732073656e6465722c6164647265737381526020017f2072656365697665722c75696e7432353620616d6f756e742c6279746573333281526020017f206e6f6e636529000000000000000000000000000000000000000000000000008152506047019050604051809103902082600001518360200151846040015185606001516040516020018086600019166000191681526020018573ffffffffffffffffffffffffffffffffffffffff1673ffffffffffffffffffffffffffffffffffffffff1681526020018473ffffffffffffffffffffffffffffffffffffffff1673ffffffffffffffffffffffffffffffffffffffff1681526020018381526020018260001916600019168152602001955050505050506040516020818303038152906040526040518082805190602001908083835b60208310151561174c5780518252602082019150602081019050602083039250611727565b6001836020036101000a03801982511681845116808217855250505050505090500191505060405180910390209050919050565b600060405180807f52656c65617365546f6b656e73466f7228616464726573732073656e6465722c81526020017f75696e7432353620616d6f756e742c62797465733332206e6f6e636529000000815250603d01905060405180910390208260000151836020015184604001516040516020018085600019166000191681526020018473ffffffffffffffffffffffffffffffffffffffff1673ffffffffffffffffffffffffffffffffffffffff16815260200183815260200182600019166000191681526020019450505050506040516020818303038152906040526040518082805190602001908083835b602083101515611892578051825260208201915060208101905060208303925061186d565b6001836020036101000a038019825116818451168082178552505050505050905001915050604051809103902090509190505600a165627a7a72305820e869245a4673d474717965c81d14c8355794f517683a97e86f2d3b15c2e306180029",
  "source": "pragma solidity 0.4.24;\n\nimport \"openzeppelin-solidity/contracts/token/ERC20/SafeERC20.sol\";\nimport \"openzeppelin-solidity/contracts/token/ERC20/ERC20.sol\";\nimport \"openzeppelin-solidity/contracts/math/SafeMath.sol\";\nimport \"./SigningLogic.sol\";\n\n/**\n * @notice TokenEscrowMarketplace is an ERC20 payment channel that enables users to send BLT by exchanging signatures off-chain\n *  Users approve the contract address to transfer BLT on their behalf using the standard ERC20.approve function\n *  After approval, either the user or the contract admin initiates the transfer of BLT into the contract\n *  Once in the contract, users can send payments via a signed message to another user. \n *  The signature transfers BLT from lockup to the recipient's balance\n *  Users can withdraw funds at any time. Or the admin can release them on the user's behalf\n *  \n *  BLT is stored in the contract by address\n *  \n *  Only the AttestationLogic contract is authorized to release funds once a jobs is complete\n */\ncontract TokenEscrowMarketplace is SigningLogic {\n  using SafeERC20 for ERC20;\n  using SafeMath for uint256;\n\n  address public attestationLogic;\n\n  mapping(address => uint256) public tokenEscrow;\n  ERC20 public token;\n\n  event TokenMarketplaceWithdrawal(address escrowPayer, uint256 amount);\n  event TokenMarketplaceEscrowPayment(address escrowPayer, address escrowPayee, uint256 amount);\n  event TokenMarketplaceDeposit(address escrowPayer, uint256 amount);\n\n  /**\n   * @notice The TokenEscrowMarketplace constructor initializes the interfaces to the other contracts\n   * @dev Some actions are restricted to be performed by the attestationLogic contract.\n   *  Signing logic is upgradeable in case the signTypedData spec changes\n   * @param _token Address of BLT\n   * @param _attestationLogic Address of current attestation logic contract\n   */\n  constructor(\n    ERC20 _token,\n    address _attestationLogic\n    ) public SigningLogic(\"Bloom Token Escrow Marketplace\", \"2\", 1) {\n    token = _token;\n    attestationLogic = _attestationLogic;\n  }\n\n  modifier onlyAttestationLogic() {\n    require(msg.sender == attestationLogic);\n    _;\n  }\n\n  /**\n   * @notice Lockup tokens for set time period on behalf of user. Must be preceeded by approve\n   * @dev Authorized by a signTypedData signature by sender\n   *  Sigs can only be used once. They contain a unique nonce\n   *  So an action can be repeated, with a different signature\n   * @param _sender User locking up their tokens\n   * @param _amount Tokens to lock up\n   * @param _nonce Unique Id so signatures can't be replayed\n   * @param _delegationSig Signed hash of these input parameters so an admin can submit this on behalf of a user\n   */\n  function moveTokensToEscrowLockupFor(\n    address _sender,\n    uint256 _amount,\n    bytes32 _nonce,\n    bytes _delegationSig\n    ) external {\n      validateLockupTokensSig(\n        _sender,\n        _amount,\n        _nonce,\n        _delegationSig\n      );\n      moveTokensToEscrowLockupForUser(_sender, _amount);\n  }\n\n  /**\n   * @notice Verify lockup signature is valid\n   * @param _sender User locking up their tokens\n   * @param _amount Tokens to lock up\n   * @param _nonce Unique Id so signatures can't be replayed\n   * @param _delegationSig Signed hash of these input parameters so an admin can submit this on behalf of a user\n   */\n  function validateLockupTokensSig(\n    address _sender,\n    uint256 _amount,\n    bytes32 _nonce,\n    bytes _delegationSig\n  ) private {\n    bytes32 _signatureDigest = generateLockupTokensDelegationSchemaHash(_sender, _amount, _nonce);\n    require(_sender == recoverSigner(_signatureDigest, _delegationSig), 'Invalid LockupTokens Signature');\n    burnSignatureDigest(_signatureDigest, _sender);\n  }\n\n  /**\n   * @notice Lockup tokens by user. Must be preceeded by approve\n   * @param _amount Tokens to lock up\n   */\n  function moveTokensToEscrowLockup(uint256 _amount) external {\n    moveTokensToEscrowLockupForUser(msg.sender, _amount);\n  }\n\n  /**\n   * @notice Lockup tokens for set time. Must be preceeded by approve\n   * @dev Private function called by appropriate public function\n   * @param _sender User locking up their tokens\n   * @param _amount Tokens to lock up\n   */\n  function moveTokensToEscrowLockupForUser(\n    address _sender,\n    uint256 _amount\n    ) private {\n    token.safeTransferFrom(_sender, this, _amount);\n    addToEscrow(_sender, _amount);\n  }\n\n  /**\n   * @notice Withdraw tokens from escrow back to requester\n   * @dev Authorized by a signTypedData signature by sender\n   *  Sigs can only be used once. They contain a unique nonce\n   *  So an action can be repeated, with a different signature\n   * @param _sender User withdrawing their tokens\n   * @param _amount Tokens to withdraw\n   * @param _nonce Unique Id so signatures can't be replayed\n   * @param _delegationSig Signed hash of these input parameters so an admin can submit this on behalf of a user\n   */\n  function releaseTokensFromEscrowFor(\n    address _sender,\n    uint256 _amount,\n    bytes32 _nonce,\n    bytes _delegationSig\n    ) external {\n      validateReleaseTokensSig(\n        _sender,\n        _amount,\n        _nonce,\n        _delegationSig\n      );\n      releaseTokensFromEscrowForUser(_sender, _amount);\n  }\n\n  /**\n   * @notice Verify lockup signature is valid\n   * @param _sender User withdrawing their tokens\n   * @param _amount Tokens to lock up\n   * @param _nonce Unique Id so signatures can't be replayed\n   * @param _delegationSig Signed hash of these input parameters so an admin can submit this on behalf of a user\n   */\n  function validateReleaseTokensSig(\n    address _sender,\n    uint256 _amount,\n    bytes32 _nonce,\n    bytes _delegationSig\n\n  ) private {\n    bytes32 _signatureDigest = generateReleaseTokensDelegationSchemaHash(_sender, _amount, _nonce);\n    require(_sender == recoverSigner(_signatureDigest, _delegationSig), 'Invalid ReleaseTokens Signature');\n    burnSignatureDigest(_signatureDigest, _sender);\n  }\n\n  /**\n   * @notice Release tokens back to payer's available balance if lockup expires\n   * @dev Token balance retreived by accountId. Can be different address from the one that deposited tokens\n   * @param _amount Tokens to retreive from escrow\n   */\n  function releaseTokensFromEscrow(uint256 _amount) external {\n    releaseTokensFromEscrowForUser(msg.sender, _amount);\n  }\n\n  /**\n   * @notice Release tokens back to payer's available balance\n   * @param _payer User retreiving tokens from escrow\n   * @param _amount Tokens to retreive from escrow\n   */\n  function releaseTokensFromEscrowForUser(\n    address _payer,\n    uint256 _amount\n    ) private {\n      subFromEscrow(_payer, _amount);\n      token.safeTransfer(_payer, _amount);\n      emit TokenMarketplaceWithdrawal(_payer, _amount);\n  }\n\n  /**\n   * @notice Pay from escrow of payer to available balance of receiever\n   * @dev Private function to modify balances on payment\n   * @param _payer User with tokens in escrow\n   * @param _receiver User receiving tokens\n   * @param _amount Tokens being sent\n   */\n  function payTokensFromEscrow(address _payer, address _receiver, uint256 _amount) private {\n    subFromEscrow(_payer, _amount);\n    token.safeTransfer(_receiver, _amount);\n  }\n\n  /**\n   * @notice Pay tokens to receiver from payer's escrow given a valid signature\n   * @dev Execution restricted to attestationLogic contract\n   * @param _payer User paying tokens from escrow\n   * @param _receiver User receiving payment\n   * @param _amount Tokens being paid\n   * @param _nonce Unique Id for sig to make it one-time-use\n   * @param _paymentSig Signed parameters by payer authorizing payment\n   */\n  function requestTokenPayment(\n    address _payer,\n    address _receiver,\n    uint256 _amount,\n    bytes32 _nonce,\n    bytes _paymentSig\n    ) external onlyAttestationLogic {\n\n    validatePaymentSig(\n      _payer,\n      _receiver,\n      _amount,\n      _nonce,\n      _paymentSig\n    );\n    payTokensFromEscrow(_payer, _receiver, _amount);\n    emit TokenMarketplaceEscrowPayment(_payer, _receiver, _amount);\n  }\n\n  /**\n   * @notice Verify payment signature is valid\n   * @param _payer User paying tokens from escrow\n   * @param _receiver User receiving payment\n   * @param _amount Tokens being paid\n   * @param _nonce Unique Id for sig to make it one-time-use\n   * @param _paymentSig Signed parameters by payer authorizing payment\n   */\n  function validatePaymentSig(\n    address _payer,\n    address _receiver,\n    uint256 _amount,\n    bytes32 _nonce,\n    bytes _paymentSig\n\n  ) private {\n    bytes32 _signatureDigest = generatePayTokensSchemaHash(_payer, _receiver, _amount, _nonce);\n    require(_payer == recoverSigner(_signatureDigest, _paymentSig), 'Invalid Payment Signature');\n    burnSignatureDigest(_signatureDigest, _payer);\n  }\n\n  /**\n   * @notice Helper function to add to escrow balance \n   * @param _from Account address for escrow mapping\n   * @param _amount Tokens to lock up\n   */\n  function addToEscrow(address _from, uint256 _amount) private {\n    tokenEscrow[_from] = tokenEscrow[_from].add(_amount);\n    emit TokenMarketplaceDeposit(_from, _amount);\n  }\n\n  /**\n   * Helper function to reduce escrow token balance of user\n   */\n  function subFromEscrow(address _from, uint256 _amount) private {\n    require(tokenEscrow[_from] >= _amount);\n    tokenEscrow[_from] = tokenEscrow[_from].sub(_amount);\n  }\n}\n",
  "sourcePath": "/Users/isaacpatka/Bloom/core/contracts/TokenEscrowMarketplace.sol",
  "compiler": {
    "name": "solc",
    "version": "0.4.24+commit.e67f0147.Emscripten.clang"
  },
  "schemaVersion": "2.0.0",
  "updatedAt": "2018-11-28T03:12:51.357Z"
}