{
  "contractName": "UnstableAccountRegistry",
  "abi": [
    {
      "constant": true,
      "inputs": [],
      "name": "accountRegistryLogic",
      "outputs": [
        {
          "name": "",
          "type": "address"
        }
      ],
      "payable": false,
      "stateMutability": "view",
      "type": "function"
    },
    {
      "constant": false,
      "inputs": [],
      "name": "renounceOwnership",
      "outputs": [],
      "payable": false,
      "stateMutability": "nonpayable",
      "type": "function"
    },
    {
      "constant": true,
      "inputs": [],
      "name": "owner",
      "outputs": [
        {
          "name": "",
          "type": "address"
        }
      ],
      "payable": false,
      "stateMutability": "view",
      "type": "function"
    },
    {
      "constant": true,
      "inputs": [
        {
          "name": "",
          "type": "address"
        }
      ],
      "name": "accountByAddress",
      "outputs": [
        {
          "name": "",
          "type": "uint256"
        }
      ],
      "payable": false,
      "stateMutability": "view",
      "type": "function"
    },
    {
      "constant": false,
      "inputs": [
        {
          "name": "_newOwner",
          "type": "address"
        }
      ],
      "name": "transferOwnership",
      "outputs": [],
      "payable": false,
      "stateMutability": "nonpayable",
      "type": "function"
    },
    {
      "inputs": [
        {
          "name": "_accountRegistryLogic",
          "type": "address"
        }
      ],
      "payable": false,
      "stateMutability": "nonpayable",
      "type": "constructor"
    },
    {
      "anonymous": false,
      "inputs": [
        {
          "indexed": false,
          "name": "oldRegistryLogic",
          "type": "address"
        },
        {
          "indexed": false,
          "name": "newRegistryLogic",
          "type": "address"
        }
      ],
      "name": "AccountRegistryLogicChanged",
      "type": "event"
    },
    {
      "anonymous": false,
      "inputs": [
        {
          "indexed": true,
          "name": "previousOwner",
          "type": "address"
        }
      ],
      "name": "OwnershipRenounced",
      "type": "event"
    },
    {
      "anonymous": false,
      "inputs": [
        {
          "indexed": true,
          "name": "previousOwner",
          "type": "address"
        },
        {
          "indexed": true,
          "name": "newOwner",
          "type": "address"
        }
      ],
      "name": "OwnershipTransferred",
      "type": "event"
    },
    {
      "constant": false,
      "inputs": [
        {
          "name": "_newRegistryLogic",
          "type": "address"
        }
      ],
      "name": "setRegistryLogic",
      "outputs": [],
      "payable": false,
      "stateMutability": "nonpayable",
      "type": "function"
    },
    {
      "constant": true,
      "inputs": [
        {
          "name": "_address",
          "type": "address"
        }
      ],
      "name": "accountIdForAddress",
      "outputs": [
        {
          "name": "",
          "type": "uint256"
        }
      ],
      "payable": false,
      "stateMutability": "view",
      "type": "function"
    },
    {
      "constant": true,
      "inputs": [
        {
          "name": "_address",
          "type": "address"
        }
      ],
      "name": "addressBelongsToAccount",
      "outputs": [
        {
          "name": "",
          "type": "bool"
        }
      ],
      "payable": false,
      "stateMutability": "view",
      "type": "function"
    },
    {
      "constant": false,
      "inputs": [
        {
          "name": "_newUser",
          "type": "address"
        }
      ],
      "name": "createNewAccount",
      "outputs": [],
      "payable": false,
      "stateMutability": "nonpayable",
      "type": "function"
    },
    {
      "constant": false,
      "inputs": [
        {
          "name": "_newAddress",
          "type": "address"
        },
        {
          "name": "_sender",
          "type": "address"
        }
      ],
      "name": "addAddressToAccount",
      "outputs": [],
      "payable": false,
      "stateMutability": "nonpayable",
      "type": "function"
    },
    {
      "constant": false,
      "inputs": [
        {
          "name": "_addressToRemove",
          "type": "address"
        }
      ],
      "name": "removeAddressFromAccount",
      "outputs": [],
      "payable": false,
      "stateMutability": "nonpayable",
      "type": "function"
    }
  ],
  "bytecode": "0x608060405234801561001057600080fd5b50604051602080610c7683398101806040528101908080519060200190929190505050336000806101000a81548173ffffffffffffffffffffffffffffffffffffffff021916908373ffffffffffffffffffffffffffffffffffffffff16021790555080600160006101000a81548173ffffffffffffffffffffffffffffffffffffffff021916908373ffffffffffffffffffffffffffffffffffffffff16021790555050610bb2806100c46000396000f3006080604052600436106100af576000357c0100000000000000000000000000000000000000000000000000000000900463ffffffff168063178daa54146100b4578063193547501461010f5780631a5b70ad14610152578063275bf230146101a95780634f96baf11461020c578063568531cc1461024f578063715018a6146102a65780638a5a8662146102bd5780638da5cb5b14610300578063a62586dd14610357578063f2fde38b146103ae575b600080fd5b3480156100c057600080fd5b506100f5600480360381019080803573ffffffffffffffffffffffffffffffffffffffff1690602001909291905050506103f1565b604051808215151515815260200191505060405180910390f35b34801561011b57600080fd5b50610150600480360381019080803573ffffffffffffffffffffffffffffffffffffffff16906020019092919050505061043c565b005b34801561015e57600080fd5b50610193600480360381019080803573ffffffffffffffffffffffffffffffffffffffff1690602001909291905050506105e4565b6040518082815260200191505060405180910390f35b3480156101b557600080fd5b5061020a600480360381019080803573ffffffffffffffffffffffffffffffffffffffff169060200190929190803573ffffffffffffffffffffffffffffffffffffffff169060200190929190505050610641565b005b34801561021857600080fd5b5061024d600480360381019080803573ffffffffffffffffffffffffffffffffffffffff16906020019092919050505061072a565b005b34801561025b57600080fd5b5061026461081e565b604051808273ffffffffffffffffffffffffffffffffffffffff1673ffffffffffffffffffffffffffffffffffffffff16815260200191505060405180910390f35b3480156102b257600080fd5b506102bb610844565b005b3480156102c957600080fd5b506102fe600480360381019080803573ffffffffffffffffffffffffffffffffffffffff169060200190929190505050610946565b005b34801561030c57600080fd5b506103156109e8565b604051808273ffffffffffffffffffffffffffffffffffffffff1673ffffffffffffffffffffffffffffffffffffffff16815260200191505060405180910390f35b34801561036357600080fd5b50610398600480360381019080803573ffffffffffffffffffffffffffffffffffffffff169060200190929190505050610a0d565b6040518082815260200191505060405180910390f35b3480156103ba57600080fd5b506103ef600480360381019080803573ffffffffffffffffffffffffffffffffffffffff169060200190929190505050610a25565b005b600080600360008473ffffffffffffffffffffffffffffffffffffffff1673ffffffffffffffffffffffffffffffffffffffff16815260200190815260200160002054119050919050565b60008060009054906101000a900473ffffffffffffffffffffffffffffffffffffffff1673ffffffffffffffffffffffffffffffffffffffff163373ffffffffffffffffffffffffffffffffffffffff1614151561049957600080fd5b8160008173ffffffffffffffffffffffffffffffffffffffff16141515156104c057600080fd5b600160009054906101000a900473ffffffffffffffffffffffffffffffffffffffff16915082600160006101000a81548173ffffffffffffffffffffffffffffffffffffffff021916908373ffffffffffffffffffffffffffffffffffffffff1602179055507f65b53e3f816e3ffd9aac808fbd21feec8a35ff24e6e6e2ae80168e82e2e6526f82600160009054906101000a900473ffffffffffffffffffffffffffffffffffffffff16604051808373ffffffffffffffffffffffffffffffffffffffff1673ffffffffffffffffffffffffffffffffffffffff1681526020018273ffffffffffffffffffffffffffffffffffffffff1673ffffffffffffffffffffffffffffffffffffffff1681526020019250505060405180910390a1505050565b60006105ef826103f1565b15156105fa57600080fd5b600360008373ffffffffffffffffffffffffffffffffffffffff1673ffffffffffffffffffffffffffffffffffffffff168152602001908152602001600020549050919050565b600160009054906101000a900473ffffffffffffffffffffffffffffffffffffffff1673ffffffffffffffffffffffffffffffffffffffff163373ffffffffffffffffffffffffffffffffffffffff1614151561069d57600080fd5b8160008173ffffffffffffffffffffffffffffffffffffffff16141515156106c457600080fd5b6106cd836103f1565b1515156106d957600080fd5b6106e2826105e4565b600360008573ffffffffffffffffffffffffffffffffffffffff1673ffffffffffffffffffffffffffffffffffffffff16815260200190815260200160002081905550505050565b600160009054906101000a900473ffffffffffffffffffffffffffffffffffffffff1673ffffffffffffffffffffffffffffffffffffffff163373ffffffffffffffffffffffffffffffffffffffff1614151561078657600080fd5b8060008173ffffffffffffffffffffffffffffffffffffffff16141515156107ad57600080fd5b6107b6826103f1565b1515156107c257600080fd5b600260008154809291906001019190505550600254600360008473ffffffffffffffffffffffffffffffffffffffff1673ffffffffffffffffffffffffffffffffffffffff168152602001908152602001600020819055505050565b600160009054906101000a900473ffffffffffffffffffffffffffffffffffffffff1681565b6000809054906101000a900473ffffffffffffffffffffffffffffffffffffffff1673ffffffffffffffffffffffffffffffffffffffff163373ffffffffffffffffffffffffffffffffffffffff1614151561089f57600080fd5b6000809054906101000a900473ffffffffffffffffffffffffffffffffffffffff1673ffffffffffffffffffffffffffffffffffffffff167ff8df31144d9c2f0f6b59d69b8b98abd5459d07f2742c4df920b25aae33c6482060405160405180910390a260008060006101000a81548173ffffffffffffffffffffffffffffffffffffffff021916908373ffffffffffffffffffffffffffffffffffffffff160217905550565b600160009054906101000a900473ffffffffffffffffffffffffffffffffffffffff1673ffffffffffffffffffffffffffffffffffffffff163373ffffffffffffffffffffffffffffffffffffffff161415156109a257600080fd5b600360008273ffffffffffffffffffffffffffffffffffffffff1673ffffffffffffffffffffffffffffffffffffffff1681526020019081526020016000206000905550565b6000809054906101000a900473ffffffffffffffffffffffffffffffffffffffff1681565b60036020528060005260406000206000915090505481565b6000809054906101000a900473ffffffffffffffffffffffffffffffffffffffff1673ffffffffffffffffffffffffffffffffffffffff163373ffffffffffffffffffffffffffffffffffffffff16141515610a8057600080fd5b610a8981610a8c565b50565b600073ffffffffffffffffffffffffffffffffffffffff168173ffffffffffffffffffffffffffffffffffffffff1614151515610ac857600080fd5b8073ffffffffffffffffffffffffffffffffffffffff166000809054906101000a900473ffffffffffffffffffffffffffffffffffffffff1673ffffffffffffffffffffffffffffffffffffffff167f8be0079c531659141344cd1fd0a4f28419497f9722a3daafe3b4186f6b6457e060405160405180910390a3806000806101000a81548173ffffffffffffffffffffffffffffffffffffffff021916908373ffffffffffffffffffffffffffffffffffffffff160217905550505600a165627a7a723058207374c9e004c34b4923ddbbc43cc12eccc05e916da11665f9bd90681a8a38e9580029",
  "source": "pragma solidity 0.4.24;\n\nimport \"openzeppelin-solidity/contracts/ownership/Ownable.sol\";\nimport \"./AccountRegistryInterface.sol\";\n\n/**\n * @title Bloom account registry\n * @notice Account Registry implements the Bloom ID data structures \n * and the low-level account administration functions.\n * The account administration functions are not publicly accessible.\n * Account Registry Logic implements the public functions which access the functions in Account Registry.\n */\ncontract UnstableAccountRegistry is Ownable, AccountRegistryInterface{\n\n  address public accountRegistryLogic;\n\n  /**\n   * @notice The AccountRegistry constructor configures the account registry logic implementation\n   *  and creates an account for the user who deployed the contract.\n   * @dev The owner is also set as the original registryAdmin, who has the privilege to\n   *  create accounts outside of the normal invitation flow.\n   * @param _accountRegistryLogic Address of deployed Account Registry Logic implementation\n   */\n  constructor(\n    address _accountRegistryLogic\n    ) public {\n    accountRegistryLogic = _accountRegistryLogic;\n  }\n\n  event AccountRegistryLogicChanged(address oldRegistryLogic, address newRegistryLogic);\n\n  /**\n   * @dev Zero address not allowed\n   */\n  modifier nonZero(address _address) {\n    require(_address != 0);\n    _;\n  }\n\n  modifier onlyAccountRegistryLogic() {\n    require(msg.sender == accountRegistryLogic);\n    _;\n  }\n\n  // Counter to generate unique account Ids\n  uint256 numAccounts;\n  mapping(address => uint256) public accountByAddress;\n\n  /**\n   * @notice Change the address of the registry logic which has exclusive write control over this contract\n   * @dev Restricted to AccountRegistry owner and new admin address cannot be 0x0\n   * @param _newRegistryLogic Address of new registry logic implementation\n   */\n  function setRegistryLogic(address _newRegistryLogic) public onlyOwner nonZero(_newRegistryLogic) {\n    address _oldRegistryLogic = accountRegistryLogic;\n    accountRegistryLogic = _newRegistryLogic;\n    emit AccountRegistryLogicChanged(_oldRegistryLogic, accountRegistryLogic);\n  }\n\n  /**\n   * @notice Retreive account ID associated with a user's address\n   * @param _address Address to look up\n   * @return account id as uint256 if exists, otherwise reverts\n   */\n  function accountIdForAddress(address _address) public view returns (uint256) {\n    require(addressBelongsToAccount(_address));\n    return accountByAddress[_address];\n  }\n\n  /**\n   * @notice Check if an address is associated with any user account\n   * @dev Check if address is associated with any user by cross validating\n   *  the accountByAddress with addressByAccount \n   * @param _address Address to check\n   * @return true if address has been assigned to user. otherwise reverts\n   */\n  function addressBelongsToAccount(address _address) public view returns (bool) {\n    return accountByAddress[_address] > 0;\n  }\n\n  /**\n   * @notice Create an account for a user and emit an event\n   * @param _newUser Address of the new user\n   */\n  function createNewAccount(address _newUser) external onlyAccountRegistryLogic nonZero(_newUser) {\n    require(!addressBelongsToAccount(_newUser));\n    numAccounts++;\n    accountByAddress[_newUser] = numAccounts;\n  }\n\n  /**\n   * @notice Add an address to an existing id \n   * @param _newAddress Address to add to account\n   * @param _sender User requesting this action\n   */\n  function addAddressToAccount(\n    address _newAddress,\n    address _sender\n    ) external onlyAccountRegistryLogic nonZero(_newAddress) {\n\n    // check if address belongs to someone else\n    require(!addressBelongsToAccount(_newAddress));\n\n    accountByAddress[_newAddress] = accountIdForAddress(_sender);\n  }\n\n  /**\n   * @notice Remove an address from an id\n   * @param _addressToRemove Address to remove from account\n   */\n  function removeAddressFromAccount(\n    address _addressToRemove\n    ) external onlyAccountRegistryLogic {\n    delete accountByAddress[_addressToRemove];\n  }\n}",
  "sourcePath": "/Users/isaacpatka/Bloom/bloom-web/contracts/UnstableAccountRegistry.sol",
  "compiler": {
    "name": "solc",
    "version": "0.4.24+commit.e67f0147.Emscripten.clang"
  },
  "schemaVersion": "2.0.1",
  "updatedAt": "2018-07-27T01:29:17.265Z"
}